{
  "_format": "hh3-artifact-1",
  "contractName": "GreenCertificateNFT",
  "sourceName": "contracts/GreenCertificateNFT.sol",
  "abi": [
    {
      "inputs": [],
      "stateMutability": "nonpayable",
      "type": "constructor"
    },
    {
      "inputs": [
        {
          "internalType": "address",
          "name": "sender",
          "type": "address"
        },
        {
          "internalType": "uint256",
          "name": "tokenId",
          "type": "uint256"
        },
        {
          "internalType": "address",
          "name": "owner",
          "type": "address"
        }
      ],
      "name": "ERC721IncorrectOwner",
      "type": "error"
    },
    {
      "inputs": [
        {
          "internalType": "address",
          "name": "operator",
          "type": "address"
        },
        {
          "internalType": "uint256",
          "name": "tokenId",
          "type": "uint256"
        }
      ],
      "name": "ERC721InsufficientApproval",
      "type": "error"
    },
    {
      "inputs": [
        {
          "internalType": "address",
          "name": "approver",
          "type": "address"
        }
      ],
      "name": "ERC721InvalidApprover",
      "type": "error"
    },
    {
      "inputs": [
        {
          "internalType": "address",
          "name": "operator",
          "type": "address"
        }
      ],
      "name": "ERC721InvalidOperator",
      "type": "error"
    },
    {
      "inputs": [
        {
          "internalType": "address",
          "name": "owner",
          "type": "address"
        }
      ],
      "name": "ERC721InvalidOwner",
      "type": "error"
    },
    {
      "inputs": [
        {
          "internalType": "address",
          "name": "receiver",
          "type": "address"
        }
      ],
      "name": "ERC721InvalidReceiver",
      "type": "error"
    },
    {
      "inputs": [
        {
          "internalType": "address",
          "name": "sender",
          "type": "address"
        }
      ],
      "name": "ERC721InvalidSender",
      "type": "error"
    },
    {
      "inputs": [
        {
          "internalType": "uint256",
          "name": "tokenId",
          "type": "uint256"
        }
      ],
      "name": "ERC721NonexistentToken",
      "type": "error"
    },
    {
      "inputs": [],
      "name": "EnforcedPause",
      "type": "error"
    },
    {
      "inputs": [],
      "name": "ExpectedPause",
      "type": "error"
    },
    {
      "inputs": [
        {
          "internalType": "address",
          "name": "owner",
          "type": "address"
        }
      ],
      "name": "OwnableInvalidOwner",
      "type": "error"
    },
    {
      "inputs": [
        {
          "internalType": "address",
          "name": "account",
          "type": "address"
        }
      ],
      "name": "OwnableUnauthorizedAccount",
      "type": "error"
    },
    {
      "anonymous": false,
      "inputs": [
        {
          "indexed": true,
          "internalType": "address",
          "name": "owner",
          "type": "address"
        },
        {
          "indexed": true,
          "internalType": "address",
          "name": "approved",
          "type": "address"
        },
        {
          "indexed": true,
          "internalType": "uint256",
          "name": "tokenId",
          "type": "uint256"
        }
      ],
      "name": "Approval",
      "type": "event"
    },
    {
      "anonymous": false,
      "inputs": [
        {
          "indexed": true,
          "internalType": "address",
          "name": "owner",
          "type": "address"
        },
        {
          "indexed": true,
          "internalType": "address",
          "name": "operator",
          "type": "address"
        },
        {
          "indexed": false,
          "internalType": "bool",
          "name": "approved",
          "type": "bool"
        }
      ],
      "name": "ApprovalForAll",
      "type": "event"
    },
    {
      "anonymous": false,
      "inputs": [
        {
          "indexed": true,
          "internalType": "uint256",
          "name": "tokenId",
          "type": "uint256"
        },
        {
          "indexed": true,
          "internalType": "address",
          "name": "buyer",
          "type": "address"
        },
        {
          "indexed": true,
          "internalType": "uint256",
          "name": "projectId",
          "type": "uint256"
        },
        {
          "indexed": false,
          "internalType": "uint256",
          "name": "retiredTokenAmount",
          "type": "uint256"
        },
        {
          "indexed": false,
          "internalType": "uint256",
          "name": "retiredCO2Kg",
          "type": "uint256"
        },
        {
          "indexed": false,
          "internalType": "string",
          "name": "certificateURI",
          "type": "string"
        }
      ],
      "name": "CertificateMinted",
      "type": "event"
    },
    {
      "anonymous": false,
      "inputs": [
        {
          "indexed": true,
          "internalType": "uint256",
          "name": "tokenId",
          "type": "uint256"
        },
        {
          "indexed": false,
          "internalType": "string",
          "name": "reason",
          "type": "string"
        }
      ],
      "name": "CertificateRevoked",
      "type": "event"
    },
    {
      "anonymous": false,
      "inputs": [
        {
          "indexed": true,
          "internalType": "uint256",
          "name": "tokenId",
          "type": "uint256"
        },
        {
          "indexed": false,
          "internalType": "string",
          "name": "newURI",
          "type": "string"
        }
      ],
      "name": "CertificateURIUpdated",
      "type": "event"
    },
    {
      "anonymous": false,
      "inputs": [
        {
          "indexed": true,
          "internalType": "address",
          "name": "oldMarketplace",
          "type": "address"
        },
        {
          "indexed": true,
          "internalType": "address",
          "name": "newMarketplace",
          "type": "address"
        }
      ],
      "name": "MarketplaceUpdated",
      "type": "event"
    },
    {
      "anonymous": false,
      "inputs": [
        {
          "indexed": true,
          "internalType": "address",
          "name": "previousOwner",
          "type": "address"
        },
        {
          "indexed": true,
          "internalType": "address",
          "name": "newOwner",
          "type": "address"
        }
      ],
      "name": "OwnershipTransferred",
      "type": "event"
    },
    {
      "anonymous": false,
      "inputs": [
        {
          "indexed": false,
          "internalType": "address",
          "name": "account",
          "type": "address"
        }
      ],
      "name": "Paused",
      "type": "event"
    },
    {
      "anonymous": false,
      "inputs": [
        {
          "indexed": true,
          "internalType": "address",
          "name": "from",
          "type": "address"
        },
        {
          "indexed": true,
          "internalType": "address",
          "name": "to",
          "type": "address"
        },
        {
          "indexed": true,
          "internalType": "uint256",
          "name": "tokenId",
          "type": "uint256"
        }
      ],
      "name": "Transfer",
      "type": "event"
    },
    {
      "anonymous": false,
      "inputs": [
        {
          "indexed": false,
          "internalType": "address",
          "name": "account",
          "type": "address"
        }
      ],
      "name": "Unpaused",
      "type": "event"
    },
    {
      "inputs": [
        {
          "internalType": "address",
          "name": "to",
          "type": "address"
        },
        {
          "internalType": "uint256",
          "name": "tokenId",
          "type": "uint256"
        }
      ],
      "name": "approve",
      "outputs": [],
      "stateMutability": "nonpayable",
      "type": "function"
    },
    {
      "inputs": [
        {
          "internalType": "address",
          "name": "owner",
          "type": "address"
        }
      ],
      "name": "balanceOf",
      "outputs": [
        {
          "internalType": "uint256",
          "name": "",
          "type": "uint256"
        }
      ],
      "stateMutability": "view",
      "type": "function"
    },
    {
      "inputs": [
        {
          "internalType": "uint256",
          "name": "",
          "type": "uint256"
        }
      ],
      "name": "certificates",
      "outputs": [
        {
          "internalType": "uint256",
          "name": "projectId",
          "type": "uint256"
        },
        {
          "internalType": "uint256",
          "name": "retiredTokenAmount",
          "type": "uint256"
        },
        {
          "internalType": "uint256",
          "name": "retiredCO2Kg",
          "type": "uint256"
        },
        {
          "internalType": "address",
          "name": "buyer",
          "type": "address"
        },
        {
          "internalType": "uint256",
          "name": "retiredAt",
          "type": "uint256"
        },
        {
          "internalType": "string",
          "name": "certificateURI",
          "type": "string"
        },
        {
          "internalType": "bool",
          "name": "revoked",
          "type": "bool"
        }
      ],
      "stateMutability": "view",
      "type": "function"
    },
    {
      "inputs": [
        {
          "internalType": "uint256",
          "name": "tokenId",
          "type": "uint256"
        }
      ],
      "name": "getApproved",
      "outputs": [
        {
          "internalType": "address",
          "name": "",
          "type": "address"
        }
      ],
      "stateMutability": "view",
      "type": "function"
    },
    {
      "inputs": [
        {
          "internalType": "address",
          "name": "owner",
          "type": "address"
        },
        {
          "internalType": "address",
          "name": "operator",
          "type": "address"
        }
      ],
      "name": "isApprovedForAll",
      "outputs": [
        {
          "internalType": "bool",
          "name": "",
          "type": "bool"
        }
      ],
      "stateMutability": "view",
      "type": "function"
    },
    {
      "inputs": [
        {
          "internalType": "uint256",
          "name": "tokenId",
          "type": "uint256"
        }
      ],
      "name": "isRevoked",
      "outputs": [
        {
          "internalType": "bool",
          "name": "",
          "type": "bool"
        }
      ],
      "stateMutability": "view",
      "type": "function"
    },
    {
      "inputs": [],
      "name": "marketplace",
      "outputs": [
        {
          "internalType": "address",
          "name": "",
          "type": "address"
        }
      ],
      "stateMutability": "view",
      "type": "function"
    },
    {
      "inputs": [
        {
          "internalType": "address",
          "name": "to",
          "type": "address"
        },
        {
          "internalType": "uint256",
          "name": "projectId",
          "type": "uint256"
        },
        {
          "internalType": "uint256",
          "name": "retiredTokenAmount",
          "type": "uint256"
        },
        {
          "internalType": "uint256",
          "name": "retiredCO2Kg",
          "type": "uint256"
        },
        {
          "internalType": "string",
          "name": "certificateURI",
          "type": "string"
        }
      ],
      "name": "mintCertificate",
      "outputs": [
        {
          "internalType": "uint256",
          "name": "",
          "type": "uint256"
        }
      ],
      "stateMutability": "nonpayable",
      "type": "function"
    },
    {
      "inputs": [],
      "name": "name",
      "outputs": [
        {
          "internalType": "string",
          "name": "",
          "type": "string"
        }
      ],
      "stateMutability": "view",
      "type": "function"
    },
    {
      "inputs": [],
      "name": "owner",
      "outputs": [
        {
          "internalType": "address",
          "name": "",
          "type": "address"
        }
      ],
      "stateMutability": "view",
      "type": "function"
    },
    {
      "inputs": [
        {
          "internalType": "uint256",
          "name": "tokenId",
          "type": "uint256"
        }
      ],
      "name": "ownerOf",
      "outputs": [
        {
          "internalType": "address",
          "name": "",
          "type": "address"
        }
      ],
      "stateMutability": "view",
      "type": "function"
    },
    {
      "inputs": [],
      "name": "pause",
      "outputs": [],
      "stateMutability": "nonpayable",
      "type": "function"
    },
    {
      "inputs": [],
      "name": "paused",
      "outputs": [
        {
          "internalType": "bool",
          "name": "",
          "type": "bool"
        }
      ],
      "stateMutability": "view",
      "type": "function"
    },
    {
      "inputs": [],
      "name": "renounceOwnership",
      "outputs": [],
      "stateMutability": "nonpayable",
      "type": "function"
    },
    {
      "inputs": [
        {
          "internalType": "uint256",
          "name": "tokenId",
          "type": "uint256"
        },
        {
          "internalType": "string",
          "name": "reason",
          "type": "string"
        }
      ],
      "name": "revokeCertificate",
      "outputs": [],
      "stateMutability": "nonpayable",
      "type": "function"
    },
    {
      "inputs": [
        {
          "internalType": "uint256",
          "name": "",
          "type": "uint256"
        }
      ],
      "name": "revokedCertificates",
      "outputs": [
        {
          "internalType": "bool",
          "name": "",
          "type": "bool"
        }
      ],
      "stateMutability": "view",
      "type": "function"
    },
    {
      "inputs": [
        {
          "internalType": "address",
          "name": "from",
          "type": "address"
        },
        {
          "internalType": "address",
          "name": "to",
          "type": "address"
        },
        {
          "internalType": "uint256",
          "name": "tokenId",
          "type": "uint256"
        }
      ],
      "name": "safeTransferFrom",
      "outputs": [],
      "stateMutability": "nonpayable",
      "type": "function"
    },
    {
      "inputs": [
        {
          "internalType": "address",
          "name": "from",
          "type": "address"
        },
        {
          "internalType": "address",
          "name": "to",
          "type": "address"
        },
        {
          "internalType": "uint256",
          "name": "tokenId",
          "type": "uint256"
        },
        {
          "internalType": "bytes",
          "name": "data",
          "type": "bytes"
        }
      ],
      "name": "safeTransferFrom",
      "outputs": [],
      "stateMutability": "nonpayable",
      "type": "function"
    },
    {
      "inputs": [
        {
          "internalType": "address",
          "name": "operator",
          "type": "address"
        },
        {
          "internalType": "bool",
          "name": "approved",
          "type": "bool"
        }
      ],
      "name": "setApprovalForAll",
      "outputs": [],
      "stateMutability": "nonpayable",
      "type": "function"
    },
    {
      "inputs": [
        {
          "internalType": "address",
          "name": "_marketplace",
          "type": "address"
        }
      ],
      "name": "setMarketplace",
      "outputs": [],
      "stateMutability": "nonpayable",
      "type": "function"
    },
    {
      "inputs": [
        {
          "internalType": "bytes4",
          "name": "interfaceId",
          "type": "bytes4"
        }
      ],
      "name": "supportsInterface",
      "outputs": [
        {
          "internalType": "bool",
          "name": "",
          "type": "bool"
        }
      ],
      "stateMutability": "view",
      "type": "function"
    },
    {
      "inputs": [],
      "name": "symbol",
      "outputs": [
        {
          "internalType": "string",
          "name": "",
          "type": "string"
        }
      ],
      "stateMutability": "view",
      "type": "function"
    },
    {
      "inputs": [
        {
          "internalType": "uint256",
          "name": "tokenId",
          "type": "uint256"
        }
      ],
      "name": "tokenURI",
      "outputs": [
        {
          "internalType": "string",
          "name": "",
          "type": "string"
        }
      ],
      "stateMutability": "view",
      "type": "function"
    },
    {
      "inputs": [
        {
          "internalType": "address",
          "name": "from",
          "type": "address"
        },
        {
          "internalType": "address",
          "name": "to",
          "type": "address"
        },
        {
          "internalType": "uint256",
          "name": "tokenId",
          "type": "uint256"
        }
      ],
      "name": "transferFrom",
      "outputs": [],
      "stateMutability": "nonpayable",
      "type": "function"
    },
    {
      "inputs": [
        {
          "internalType": "address",
          "name": "newOwner",
          "type": "address"
        }
      ],
      "name": "transferOwnership",
      "outputs": [],
      "stateMutability": "nonpayable",
      "type": "function"
    },
    {
      "inputs": [],
      "name": "unpause",
      "outputs": [],
      "stateMutability": "nonpayable",
      "type": "function"
    },
    {
      "inputs": [
        {
          "internalType": "uint256",
          "name": "tokenId",
          "type": "uint256"
        },
        {
          "internalType": "string",
          "name": "newURI",
          "type": "string"
        }
      ],
      "name": "updateCertificateURI",
      "outputs": [],
      "stateMutability": "nonpayable",
      "type": "function"
    }
  ],
  "bytecode": "0x608060405234801561000f575f5ffd5b50336040518060400160405280601881526020017f436172626f5820477265656e20436572746966696361746500000000000000008152506040518060400160405280600381526020016243474360e81b815250815f908161007191906101a6565b50600161007e82826101a6565b5050506001600160a01b0381166100ae57604051631e4fbdf760e01b81525f600482015260240160405180910390fd5b6100b7816100bd565b50610260565b600680546001600160a01b038381166001600160a01b0319831681179093556040519116919082907f8be0079c531659141344cd1fd0a4f28419497f9722a3daafe3b4186f6b6457e0905f90a35050565b634e487b7160e01b5f52604160045260245ffd5b600181811c9082168061013657607f821691505b60208210810361015457634e487b7160e01b5f52602260045260245ffd5b50919050565b601f8211156101a157805f5260205f20601f840160051c8101602085101561017f5750805b601f840160051c820191505b8181101561019e575f815560010161018b565b50505b505050565b81516001600160401b038111156101bf576101bf61010e565b6101d3816101cd8454610122565b8461015a565b6020601f821160018114610205575f83156101ee5750848201515b5f19600385901b1c1916600184901b17845561019e565b5f84815260208120601f198516915b828110156102345787850151825560209485019460019092019101610214565b508482101561025157868401515f19600387901b60f8161c191681555b50505050600190811b01905550565b611c9a8061026d5f395ff3fe608060405234801561000f575f5ffd5b50600436106101a1575f3560e01c8063715018a6116100f3578063b1466d1d11610093578063e985e9c51161006e578063e985e9c51461039b578063f2fde38b146103ae578063f7b3d856146103c1578063f85ad0d6146103d4575f5ffd5b8063b1466d1d14610362578063b88d4fde14610375578063c87b56dd14610388575f5ffd5b80638da5cb5b116100ce5780638da5cb5b1461032357806395d89b4114610334578063a22cb4651461033c578063abc8c7af1461034f575f5ffd5b8063715018a61461030057806373ad6c2d146103085780638456cb591461031b575f5ffd5b80633f4ba83a1161015e5780635ccc561e116101395780635ccc561e146102845780636352211e146102a6578063663b3e22146102b957806370a08231146102df575f5ffd5b80633f4ba83a1461025757806342842e0e1461025f5780635c975abb14610272575f5ffd5b806301ffc9a7146101a557806306fdde03146101cd578063081812fc146101e2578063095ea7b31461020d57806323b872dd146102225780633041bcf914610235575b5f5ffd5b6101b86101b3366004611675565b6103e7565b60405190151581526020015b60405180910390f35b6101d5610438565b6040516101c491906116c5565b6101f56101f03660046116d7565b6104c7565b6040516001600160a01b0390911681526020016101c4565b61022061021b366004611709565b6104ee565b005b610220610230366004611731565b6104fd565b6101b86102433660046116d7565b600a6020525f908152604090205460ff1681565b61022061058b565b61022061026d366004611731565b61059d565b600654600160a01b900460ff166101b8565b6101b86102923660046116d7565b5f908152600a602052604090205460ff1690565b6101f56102b43660046116d7565b6105bc565b6102cc6102c73660046116d7565b6105c6565b6040516101c4979695949392919061176b565b6102f26102ed3660046117b9565b610697565b6040519081526020016101c4565b6102206106dc565b6102206103163660046117b9565b6106ed565b6102206107b5565b6006546001600160a01b03166101f5565b6101d56107c5565b61022061034a3660046117d2565b6107d4565b6007546101f5906001600160a01b031681565b6102206103703660046118b4565b6107df565b6102206103833660046118f8565b6108fc565b6101d56103963660046116d7565b610914565b6101b86103a936600461196f565b610a16565b6102206103bc3660046117b9565b610a43565b6102f26103cf3660046119a0565b610a80565b6102206103e23660046118b4565b610d81565b5f6001600160e01b031982166380ac58cd60e01b148061041757506001600160e01b03198216635b5e139f60e01b145b8061043257506301ffc9a760e01b6001600160e01b03198316145b92915050565b60605f805461044690611a06565b80601f016020809104026020016040519081016040528092919081815260200182805461047290611a06565b80156104bd5780601f10610494576101008083540402835291602001916104bd565b820191905f5260205f20905b8154815290600101906020018083116104a057829003601f168201915b5050505050905090565b5f6104d182610e85565b505f828152600460205260409020546001600160a01b0316610432565b6104f9828233610ebd565b5050565b6001600160a01b03821661052b57604051633250574960e11b81525f60048201526024015b60405180910390fd5b5f610537838333610eca565b9050836001600160a01b0316816001600160a01b031614610585576040516364283d7b60e01b81526001600160a01b0380861660048301526024820184905282166044820152606401610522565b50505050565b610593610f7f565b61059b610fac565b565b6105b783838360405180602001604052805f8152506108fc565b505050565b5f61043282610e85565b60096020525f90815260409020805460018201546002830154600384015460048501546005860180549596949593946001600160a01b039093169391929161060d90611a06565b80601f016020809104026020016040519081016040528092919081815260200182805461063990611a06565b80156106845780601f1061065b57610100808354040283529160200191610684565b820191905f5260205f20905b81548152906001019060200180831161066757829003601f168201915b5050506006909301549192505060ff1687565b5f6001600160a01b0382166106c1576040516322718ad960e21b81525f6004820152602401610522565b506001600160a01b03165f9081526003602052604090205490565b6106e4610f7f565b61059b5f611001565b6106f5610f7f565b6001600160a01b0381166107645760405162461bcd60e51b815260206004820152603060248201527f477265656e43657274696669636174654e46543a206d61726b6574706c61636560448201526f206973207a65726f206164647265737360801b6064820152608401610522565b600780546001600160a01b038381166001600160a01b0319831681179093556040519116919082907fc3e7368ef0a668941a4115b651a9c4f3fa3a13cc6ea105bb91e12bcaa932293c905f90a35050565b6107bd610f7f565b61059b611052565b60606001805461044690611a06565b6104f9338383611095565b6107e7610f7f565b5f828152600260205260409020546001600160a01b031661081a5760405162461bcd60e51b815260040161052290611a3e565b5f828152600a602052604090205460ff16156108845760405162461bcd60e51b8152602060048201526024808201527f477265656e43657274696669636174654e46543a20616c7265616479207265766044820152631bdad95960e21b6064820152608401610522565b5f828152600a602090815260408083208054600160ff19918216811790925560099093529220600601805490911690911790556108c08261115c565b817f65032d3cc955c731f4c2a4178f663dbcc6c08e5163bad5a3149773f3894548d3826040516108f091906116c5565b60405180910390a25050565b6109078484846104fd565b6105853385858585611194565b5f818152600260205260409020546060906001600160a01b031661094a5760405162461bcd60e51b815260040161052290611a3e565b5f828152600a602052604090205460ff16156109785760405162461bcd60e51b815260040161052290611a87565b5f828152600960205260409020600501805461099390611a06565b80601f01602080910402602001604051908101604052809291908181526020018280546109bf90611a06565b8015610a0a5780601f106109e157610100808354040283529160200191610a0a565b820191905f5260205f20905b8154815290600101906020018083116109ed57829003601f168201915b50505050509050919050565b6001600160a01b039182165f90815260056020908152604080832093909416825291909152205460ff1690565b610a4b610f7f565b6001600160a01b038116610a7457604051631e4fbdf760e01b81525f6004820152602401610522565b610a7d81611001565b50565b6007545f906001600160a01b03163314610af35760405162461bcd60e51b815260206004820152602e60248201527f477265656e43657274696669636174654e46543a2063616c6c6572206973206e60448201526d6f74206d61726b6574706c61636560901b6064820152608401610522565b610afb6112bc565b6001600160a01b038616610b635760405162461bcd60e51b815260206004820152602960248201527f477265656e43657274696669636174654e46543a206d696e7420746f207a65726044820152686f206164647265737360b81b6064820152608401610522565b5f8411610bbe5760405162461bcd60e51b815260206004820152602360248201527f477265656e43657274696669636174654e46543a20616d6f756e74206973207a60448201526265726f60e81b6064820152608401610522565b5f8311610c0d5760405162461bcd60e51b815260206004820181905260248201527f477265656e43657274696669636174654e46543a20434f32206973207a65726f6044820152606401610522565b5f825111610c5d5760405162461bcd60e51b815260206004820152601e60248201527f477265656e43657274696669636174654e46543a20656d7074792055524900006044820152606401610522565b60088054905f610c6c83611acc565b90915550506008546040805160e08101825287815260208082018881528284018881526001600160a01b038c811660608601908152426080870190815260a087018b81525f60c089018190528a815260099097529790952086518155935160018501559151600284015590516003830180546001600160a01b031916919092161790559051600482015591519091906005820190610d0a9082611b34565b5060c091909101516006909101805460ff1916911515919091179055610d3087826112e7565b85876001600160a01b0316827fc7dac02556d6ef71c7b2f5ca38f9815c597d1fb7575206e44ac9684eb01b5a16888888604051610d6f93929190611bef565b60405180910390a49695505050505050565b610d89610f7f565b5f828152600260205260409020546001600160a01b0316610dbc5760405162461bcd60e51b815260040161052290611a3e565b5f815111610e0c5760405162461bcd60e51b815260206004820152601e60248201527f477265656e43657274696669636174654e46543a20656d7074792055524900006044820152606401610522565b5f828152600a602052604090205460ff1615610e3a5760405162461bcd60e51b815260040161052290611a87565b5f828152600960205260409020600501610e548282611b34565b50817f8ec4f0b2c01a4b88ec283662cd55af9fbf87610e4d79962544047716304e6807826040516108f091906116c5565b5f818152600260205260408120546001600160a01b03168061043257604051637e27328960e01b815260048101849052602401610522565b6105b78383836001611300565b5f610ed36112bc565b5f838152600260205260409020546001600160a01b03168015801590610f0157506001600160a01b03851615155b15610f6b5760405162461bcd60e51b815260206004820152603460248201527f477265656e43657274696669636174654e46543a206365727469666963617465604482015273206973206e6f6e2d7472616e7366657261626c6560601b6064820152608401610522565b610f76858585611404565b95945050505050565b6006546001600160a01b0316331461059b5760405163118cdaa760e01b8152336004820152602401610522565b610fb46114f6565b6006805460ff60a01b191690557f5db9ee0a495bf2e6ff9c91a7834c1ba4fdd244a5e8aa4e537bd38aeae4b073aa335b6040516001600160a01b03909116815260200160405180910390a1565b600680546001600160a01b038381166001600160a01b0319831681179093556040519116919082907f8be0079c531659141344cd1fd0a4f28419497f9722a3daafe3b4186f6b6457e0905f90a35050565b61105a6112bc565b6006805460ff60a01b1916600160a01b1790557f62e78cea01bee320cd4e420270b5ea74000d11b0c9f74754ebdbfc544b05a258610fe43390565b6001600160a01b0383166110be5760405163a9fbf51f60e01b81525f6004820152602401610522565b6001600160a01b0382166110f057604051630b61174360e31b81526001600160a01b0383166004820152602401610522565b6001600160a01b038381165f81815260056020908152604080832094871680845294825291829020805460ff191686151590811790915591519182527f17307eab39ab6107e8899845ad3d59bd9653f200f220920489ca2b5937696c31910160405180910390a3505050565b5f6111685f835f610eca565b90506001600160a01b0381166104f957604051637e27328960e01b815260048101839052602401610522565b6001600160a01b0383163b156112b557604051630a85bd0160e11b81526001600160a01b0384169063150b7a02906111d6908890889087908790600401611c0d565b6020604051808303815f875af1925050508015611210575060408051601f3d908101601f1916820190925261120d91810190611c49565b60015b611277573d80801561123d576040519150601f19603f3d011682016040523d82523d5f602084013e611242565b606091505b5080515f0361126f57604051633250574960e11b81526001600160a01b0385166004820152602401610522565b805160208201fd5b6001600160e01b03198116630a85bd0160e11b146112b357604051633250574960e11b81526001600160a01b0385166004820152602401610522565b505b5050505050565b600654600160a01b900460ff161561059b5760405163d93c066560e01b815260040160405180910390fd5b6104f9828260405180602001604052805f815250611520565b808061131457506001600160a01b03821615155b156113d5575f61132384610e85565b90506001600160a01b0383161580159061134f5750826001600160a01b0316816001600160a01b031614155b801561136257506113608184610a16565b155b1561138b5760405163a9fbf51f60e01b81526001600160a01b0384166004820152602401610522565b81156113d35783856001600160a01b0316826001600160a01b03167f8c5be1e5ebec7d5bd14f71427d1e84f3dd0314c0f7b2291e5b200ac8c7c3b92560405160405180910390a45b505b50505f90815260046020526040902080546001600160a01b0319166001600160a01b0392909216919091179055565b5f828152600260205260408120546001600160a01b039081169083161561143057611430818486611537565b6001600160a01b0381161561146a5761144b5f855f5f611300565b6001600160a01b0381165f90815260036020526040902080545f190190555b6001600160a01b03851615611498576001600160a01b0385165f908152600360205260409020805460010190555b5f8481526002602052604080822080546001600160a01b0319166001600160a01b0389811691821790925591518793918516917fddf252ad1be2c89b69c2b068fc378daa952ba7f163c4a11628f55a4df523b3ef91a4949350505050565b600654600160a01b900460ff1661059b57604051638dfc202b60e01b815260040160405180910390fd5b61152a838361159b565b6105b7335f858585611194565b6115428383836115fc565b6105b7576001600160a01b03831661157057604051637e27328960e01b815260048101829052602401610522565b60405163177e802f60e01b81526001600160a01b038316600482015260248101829052604401610522565b6001600160a01b0382166115c457604051633250574960e11b81525f6004820152602401610522565b5f6115d083835f610eca565b90506001600160a01b038116156105b7576040516339e3563760e11b81525f6004820152602401610522565b5f6001600160a01b038316158015906116585750826001600160a01b0316846001600160a01b0316148061163557506116358484610a16565b8061165857505f828152600460205260409020546001600160a01b038481169116145b949350505050565b6001600160e01b031981168114610a7d575f5ffd5b5f60208284031215611685575f5ffd5b813561169081611660565b9392505050565b5f81518084528060208401602086015e5f602082860101526020601f19601f83011685010191505092915050565b602081525f6116906020830184611697565b5f602082840312156116e7575f5ffd5b5035919050565b80356001600160a01b0381168114611704575f5ffd5b919050565b5f5f6040838503121561171a575f5ffd5b611723836116ee565b946020939093013593505050565b5f5f5f60608486031215611743575f5ffd5b61174c846116ee565b925061175a602085016116ee565b929592945050506040919091013590565b87815286602082015285604082015260018060a01b038516606082015283608082015260e060a08201525f6117a360e0830185611697565b905082151560c083015298975050505050505050565b5f602082840312156117c9575f5ffd5b611690826116ee565b5f5f604083850312156117e3575f5ffd5b6117ec836116ee565b915060208301358015158114611800575f5ffd5b809150509250929050565b634e487b7160e01b5f52604160045260245ffd5b5f5f67ffffffffffffffff8411156118395761183961180b565b50604051601f19601f85018116603f0116810181811067ffffffffffffffff821117156118685761186861180b565b60405283815290508082840185101561187f575f5ffd5b838360208301375f60208583010152509392505050565b5f82601f8301126118a5575f5ffd5b6116908383356020850161181f565b5f5f604083850312156118c5575f5ffd5b82359150602083013567ffffffffffffffff8111156118e2575f5ffd5b6118ee85828601611896565b9150509250929050565b5f5f5f5f6080858703121561190b575f5ffd5b611914856116ee565b9350611922602086016116ee565b925060408501359150606085013567ffffffffffffffff811115611944575f5ffd5b8501601f81018713611954575f5ffd5b6119638782356020840161181f565b91505092959194509250565b5f5f60408385031215611980575f5ffd5b611989836116ee565b9150611997602084016116ee565b90509250929050565b5f5f5f5f5f60a086880312156119b4575f5ffd5b6119bd866116ee565b9450602086013593506040860135925060608601359150608086013567ffffffffffffffff8111156119ed575f5ffd5b6119f988828901611896565b9150509295509295909350565b600181811c90821680611a1a57607f821691505b602082108103611a3857634e487b7160e01b5f52602260045260245ffd5b50919050565b60208082526029908201527f477265656e43657274696669636174654e46543a20746f6b656e20646f6573206040820152681b9bdd08195e1a5cdd60ba1b606082015260800190565b60208082526025908201527f477265656e43657274696669636174654e46543a20746f6b656e2069732072656040820152641d9bdad95960da1b606082015260800190565b5f60018201611ae957634e487b7160e01b5f52601160045260245ffd5b5060010190565b601f8211156105b757805f5260205f20601f840160051c81016020851015611b155750805b601f840160051c820191505b818110156112b5575f8155600101611b21565b815167ffffffffffffffff811115611b4e57611b4e61180b565b611b6281611b5c8454611a06565b84611af0565b6020601f821160018114611b94575f8315611b7d5750848201515b5f19600385901b1c1916600184901b1784556112b5565b5f84815260208120601f198516915b82811015611bc35787850151825560209485019460019092019101611ba3565b5084821015611be057868401515f19600387901b60f8161c191681555b50505050600190811b01905550565b838152826020820152606060408201525f610f766060830184611697565b6001600160a01b03858116825284166020820152604081018390526080606082018190525f90611c3f90830184611697565b9695505050505050565b5f60208284031215611c59575f5ffd5b81516116908161166056fea2646970667358221220b977b4413b7550465d5e07463456f9e963447a33e33905d4e19193d84259ca1e64736f6c634300081c0033",
  "linkReferences": {},
  "deployedLinkReferences": {},
  "immutableReferences": {},
  "inputSourceName": "project/contracts/GreenCertificateNFT.sol",
  "buildInfoId": "solc-0_8_28-f90704dd4769dbc2ee4eef4766a5cdbc6033b4ad"
}