{
  "_format": "hh3-artifact-1",
  "contractName": "CarbonCredit1155",
  "sourceName": "contracts/CarbonCredit1155.sol",
  "abi": [
    {
      "inputs": [],
      "stateMutability": "nonpayable",
      "type": "constructor"
    },
    {
      "inputs": [
        {
          "internalType": "address",
          "name": "sender",
          "type": "address"
        },
        {
          "internalType": "uint256",
          "name": "balance",
          "type": "uint256"
        },
        {
          "internalType": "uint256",
          "name": "needed",
          "type": "uint256"
        },
        {
          "internalType": "uint256",
          "name": "tokenId",
          "type": "uint256"
        }
      ],
      "name": "ERC1155InsufficientBalance",
      "type": "error"
    },
    {
      "inputs": [
        {
          "internalType": "address",
          "name": "approver",
          "type": "address"
        }
      ],
      "name": "ERC1155InvalidApprover",
      "type": "error"
    },
    {
      "inputs": [
        {
          "internalType": "uint256",
          "name": "idsLength",
          "type": "uint256"
        },
        {
          "internalType": "uint256",
          "name": "valuesLength",
          "type": "uint256"
        }
      ],
      "name": "ERC1155InvalidArrayLength",
      "type": "error"
    },
    {
      "inputs": [
        {
          "internalType": "address",
          "name": "operator",
          "type": "address"
        }
      ],
      "name": "ERC1155InvalidOperator",
      "type": "error"
    },
    {
      "inputs": [
        {
          "internalType": "address",
          "name": "receiver",
          "type": "address"
        }
      ],
      "name": "ERC1155InvalidReceiver",
      "type": "error"
    },
    {
      "inputs": [
        {
          "internalType": "address",
          "name": "sender",
          "type": "address"
        }
      ],
      "name": "ERC1155InvalidSender",
      "type": "error"
    },
    {
      "inputs": [
        {
          "internalType": "address",
          "name": "operator",
          "type": "address"
        },
        {
          "internalType": "address",
          "name": "owner",
          "type": "address"
        }
      ],
      "name": "ERC1155MissingApprovalForAll",
      "type": "error"
    },
    {
      "inputs": [],
      "name": "EnforcedPause",
      "type": "error"
    },
    {
      "inputs": [],
      "name": "ExpectedPause",
      "type": "error"
    },
    {
      "inputs": [
        {
          "internalType": "address",
          "name": "owner",
          "type": "address"
        }
      ],
      "name": "OwnableInvalidOwner",
      "type": "error"
    },
    {
      "inputs": [
        {
          "internalType": "address",
          "name": "account",
          "type": "address"
        }
      ],
      "name": "OwnableUnauthorizedAccount",
      "type": "error"
    },
    {
      "anonymous": false,
      "inputs": [
        {
          "indexed": true,
          "internalType": "address",
          "name": "account",
          "type": "address"
        },
        {
          "indexed": true,
          "internalType": "address",
          "name": "operator",
          "type": "address"
        },
        {
          "indexed": false,
          "internalType": "bool",
          "name": "approved",
          "type": "bool"
        }
      ],
      "name": "ApprovalForAll",
      "type": "event"
    },
    {
      "anonymous": false,
      "inputs": [
        {
          "indexed": true,
          "internalType": "address",
          "name": "from",
          "type": "address"
        },
        {
          "indexed": true,
          "internalType": "uint256",
          "name": "projectId",
          "type": "uint256"
        },
        {
          "indexed": false,
          "internalType": "uint256",
          "name": "amount",
          "type": "uint256"
        }
      ],
      "name": "CreditBurned",
      "type": "event"
    },
    {
      "anonymous": false,
      "inputs": [
        {
          "indexed": true,
          "internalType": "address",
          "name": "to",
          "type": "address"
        },
        {
          "indexed": true,
          "internalType": "uint256",
          "name": "projectId",
          "type": "uint256"
        },
        {
          "indexed": false,
          "internalType": "uint256",
          "name": "amount",
          "type": "uint256"
        },
        {
          "indexed": false,
          "internalType": "string",
          "name": "tokenURI",
          "type": "string"
        }
      ],
      "name": "CreditMinted",
      "type": "event"
    },
    {
      "anonymous": false,
      "inputs": [
        {
          "indexed": true,
          "internalType": "address",
          "name": "oldMarketplace",
          "type": "address"
        },
        {
          "indexed": true,
          "internalType": "address",
          "name": "newMarketplace",
          "type": "address"
        }
      ],
      "name": "MarketplaceUpdated",
      "type": "event"
    },
    {
      "anonymous": false,
      "inputs": [
        {
          "indexed": true,
          "internalType": "address",
          "name": "previousOwner",
          "type": "address"
        },
        {
          "indexed": true,
          "internalType": "address",
          "name": "newOwner",
          "type": "address"
        }
      ],
      "name": "OwnershipTransferred",
      "type": "event"
    },
    {
      "anonymous": false,
      "inputs": [
        {
          "indexed": false,
          "internalType": "address",
          "name": "account",
          "type": "address"
        }
      ],
      "name": "Paused",
      "type": "event"
    },
    {
      "anonymous": false,
      "inputs": [
        {
          "indexed": true,
          "internalType": "uint256",
          "name": "projectId",
          "type": "uint256"
        },
        {
          "indexed": false,
          "internalType": "string",
          "name": "reason",
          "type": "string"
        }
      ],
      "name": "ProjectBlacklisted",
      "type": "event"
    },
    {
      "anonymous": false,
      "inputs": [
        {
          "indexed": true,
          "internalType": "uint256",
          "name": "projectId",
          "type": "uint256"
        }
      ],
      "name": "ProjectUnblacklisted",
      "type": "event"
    },
    {
      "anonymous": false,
      "inputs": [
        {
          "indexed": true,
          "internalType": "uint256",
          "name": "projectId",
          "type": "uint256"
        },
        {
          "indexed": false,
          "internalType": "string",
          "name": "tokenURI",
          "type": "string"
        }
      ],
      "name": "TokenURIUpdated",
      "type": "event"
    },
    {
      "anonymous": false,
      "inputs": [
        {
          "indexed": true,
          "internalType": "address",
          "name": "operator",
          "type": "address"
        },
        {
          "indexed": true,
          "internalType": "address",
          "name": "from",
          "type": "address"
        },
        {
          "indexed": true,
          "internalType": "address",
          "name": "to",
          "type": "address"
        },
        {
          "indexed": false,
          "internalType": "uint256[]",
          "name": "ids",
          "type": "uint256[]"
        },
        {
          "indexed": false,
          "internalType": "uint256[]",
          "name": "values",
          "type": "uint256[]"
        }
      ],
      "name": "TransferBatch",
      "type": "event"
    },
    {
      "anonymous": false,
      "inputs": [
        {
          "indexed": true,
          "internalType": "address",
          "name": "operator",
          "type": "address"
        },
        {
          "indexed": true,
          "internalType": "address",
          "name": "from",
          "type": "address"
        },
        {
          "indexed": true,
          "internalType": "address",
          "name": "to",
          "type": "address"
        },
        {
          "indexed": false,
          "internalType": "uint256",
          "name": "id",
          "type": "uint256"
        },
        {
          "indexed": false,
          "internalType": "uint256",
          "name": "value",
          "type": "uint256"
        }
      ],
      "name": "TransferSingle",
      "type": "event"
    },
    {
      "anonymous": false,
      "inputs": [
        {
          "indexed": false,
          "internalType": "string",
          "name": "value",
          "type": "string"
        },
        {
          "indexed": true,
          "internalType": "uint256",
          "name": "id",
          "type": "uint256"
        }
      ],
      "name": "URI",
      "type": "event"
    },
    {
      "anonymous": false,
      "inputs": [
        {
          "indexed": false,
          "internalType": "address",
          "name": "account",
          "type": "address"
        }
      ],
      "name": "Unpaused",
      "type": "event"
    },
    {
      "inputs": [
        {
          "internalType": "address",
          "name": "account",
          "type": "address"
        },
        {
          "internalType": "uint256",
          "name": "id",
          "type": "uint256"
        }
      ],
      "name": "balanceOf",
      "outputs": [
        {
          "internalType": "uint256",
          "name": "",
          "type": "uint256"
        }
      ],
      "stateMutability": "view",
      "type": "function"
    },
    {
      "inputs": [
        {
          "internalType": "address[]",
          "name": "accounts",
          "type": "address[]"
        },
        {
          "internalType": "uint256[]",
          "name": "ids",
          "type": "uint256[]"
        }
      ],
      "name": "balanceOfBatch",
      "outputs": [
        {
          "internalType": "uint256[]",
          "name": "",
          "type": "uint256[]"
        }
      ],
      "stateMutability": "view",
      "type": "function"
    },
    {
      "inputs": [
        {
          "internalType": "uint256",
          "name": "projectId",
          "type": "uint256"
        },
        {
          "internalType": "string",
          "name": "reason",
          "type": "string"
        }
      ],
      "name": "blacklistProject",
      "outputs": [],
      "stateMutability": "nonpayable",
      "type": "function"
    },
    {
      "inputs": [
        {
          "internalType": "address",
          "name": "from",
          "type": "address"
        },
        {
          "internalType": "uint256",
          "name": "projectId",
          "type": "uint256"
        },
        {
          "internalType": "uint256",
          "name": "amount",
          "type": "uint256"
        }
      ],
      "name": "burnCredit",
      "outputs": [],
      "stateMutability": "nonpayable",
      "type": "function"
    },
    {
      "inputs": [
        {
          "internalType": "address",
          "name": "account",
          "type": "address"
        },
        {
          "internalType": "address",
          "name": "operator",
          "type": "address"
        }
      ],
      "name": "isApprovedForAll",
      "outputs": [
        {
          "internalType": "bool",
          "name": "",
          "type": "bool"
        }
      ],
      "stateMutability": "view",
      "type": "function"
    },
    {
      "inputs": [],
      "name": "marketplace",
      "outputs": [
        {
          "internalType": "address",
          "name": "",
          "type": "address"
        }
      ],
      "stateMutability": "view",
      "type": "function"
    },
    {
      "inputs": [
        {
          "internalType": "address",
          "name": "to",
          "type": "address"
        },
        {
          "internalType": "uint256",
          "name": "projectId",
          "type": "uint256"
        },
        {
          "internalType": "uint256",
          "name": "amount",
          "type": "uint256"
        },
        {
          "internalType": "string",
          "name": "tokenURI",
          "type": "string"
        }
      ],
      "name": "mintCredit",
      "outputs": [],
      "stateMutability": "nonpayable",
      "type": "function"
    },
    {
      "inputs": [],
      "name": "owner",
      "outputs": [
        {
          "internalType": "address",
          "name": "",
          "type": "address"
        }
      ],
      "stateMutability": "view",
      "type": "function"
    },
    {
      "inputs": [],
      "name": "pause",
      "outputs": [],
      "stateMutability": "nonpayable",
      "type": "function"
    },
    {
      "inputs": [],
      "name": "paused",
      "outputs": [
        {
          "internalType": "bool",
          "name": "",
          "type": "bool"
        }
      ],
      "stateMutability": "view",
      "type": "function"
    },
    {
      "inputs": [
        {
          "internalType": "uint256",
          "name": "",
          "type": "uint256"
        }
      ],
      "name": "projectBlacklist",
      "outputs": [
        {
          "internalType": "bool",
          "name": "",
          "type": "bool"
        }
      ],
      "stateMutability": "view",
      "type": "function"
    },
    {
      "inputs": [],
      "name": "renounceOwnership",
      "outputs": [],
      "stateMutability": "nonpayable",
      "type": "function"
    },
    {
      "inputs": [
        {
          "internalType": "address",
          "name": "from",
          "type": "address"
        },
        {
          "internalType": "address",
          "name": "to",
          "type": "address"
        },
        {
          "internalType": "uint256[]",
          "name": "ids",
          "type": "uint256[]"
        },
        {
          "internalType": "uint256[]",
          "name": "values",
          "type": "uint256[]"
        },
        {
          "internalType": "bytes",
          "name": "data",
          "type": "bytes"
        }
      ],
      "name": "safeBatchTransferFrom",
      "outputs": [],
      "stateMutability": "nonpayable",
      "type": "function"
    },
    {
      "inputs": [
        {
          "internalType": "address",
          "name": "from",
          "type": "address"
        },
        {
          "internalType": "address",
          "name": "to",
          "type": "address"
        },
        {
          "internalType": "uint256",
          "name": "id",
          "type": "uint256"
        },
        {
          "internalType": "uint256",
          "name": "value",
          "type": "uint256"
        },
        {
          "internalType": "bytes",
          "name": "data",
          "type": "bytes"
        }
      ],
      "name": "safeTransferFrom",
      "outputs": [],
      "stateMutability": "nonpayable",
      "type": "function"
    },
    {
      "inputs": [
        {
          "internalType": "address",
          "name": "operator",
          "type": "address"
        },
        {
          "internalType": "bool",
          "name": "approved",
          "type": "bool"
        }
      ],
      "name": "setApprovalForAll",
      "outputs": [],
      "stateMutability": "nonpayable",
      "type": "function"
    },
    {
      "inputs": [
        {
          "internalType": "address",
          "name": "_marketplace",
          "type": "address"
        }
      ],
      "name": "setMarketplace",
      "outputs": [],
      "stateMutability": "nonpayable",
      "type": "function"
    },
    {
      "inputs": [
        {
          "internalType": "uint256",
          "name": "projectId",
          "type": "uint256"
        },
        {
          "internalType": "string",
          "name": "tokenURI",
          "type": "string"
        }
      ],
      "name": "setTokenURI",
      "outputs": [],
      "stateMutability": "nonpayable",
      "type": "function"
    },
    {
      "inputs": [
        {
          "internalType": "bytes4",
          "name": "interfaceId",
          "type": "bytes4"
        }
      ],
      "name": "supportsInterface",
      "outputs": [
        {
          "internalType": "bool",
          "name": "",
          "type": "bool"
        }
      ],
      "stateMutability": "view",
      "type": "function"
    },
    {
      "inputs": [
        {
          "internalType": "address",
          "name": "newOwner",
          "type": "address"
        }
      ],
      "name": "transferOwnership",
      "outputs": [],
      "stateMutability": "nonpayable",
      "type": "function"
    },
    {
      "inputs": [
        {
          "internalType": "uint256",
          "name": "projectId",
          "type": "uint256"
        }
      ],
      "name": "unblacklistProject",
      "outputs": [],
      "stateMutability": "nonpayable",
      "type": "function"
    },
    {
      "inputs": [],
      "name": "unpause",
      "outputs": [],
      "stateMutability": "nonpayable",
      "type": "function"
    },
    {
      "inputs": [
        {
          "internalType": "uint256",
          "name": "projectId",
          "type": "uint256"
        }
      ],
      "name": "uri",
      "outputs": [
        {
          "internalType": "string",
          "name": "",
          "type": "string"
        }
      ],
      "stateMutability": "view",
      "type": "function"
    }
  ],
  "bytecode": "0x608060405234801561000f575f5ffd5b5060408051602081019091525f8152339061002981610066565b506001600160a01b03811661005757604051631e4fbdf760e01b81525f600482015260240160405180910390fd5b61006081610076565b50610219565b6002610072828261015f565b5050565b600380546001600160a01b038381166001600160a01b0319831681179093556040519116919082907f8be0079c531659141344cd1fd0a4f28419497f9722a3daafe3b4186f6b6457e0905f90a35050565b634e487b7160e01b5f52604160045260245ffd5b600181811c908216806100ef57607f821691505b60208210810361010d57634e487b7160e01b5f52602260045260245ffd5b50919050565b601f82111561015a57805f5260205f20601f840160051c810160208510156101385750805b601f840160051c820191505b81811015610157575f8155600101610144565b50505b505050565b81516001600160401b03811115610178576101786100c7565b61018c8161018684546100db565b84610113565b6020601f8211600181146101be575f83156101a75750848201515b5f19600385901b1c1916600184901b178455610157565b5f84815260208120601f198516915b828110156101ed57878501518255602094850194600190920191016101cd565b508482101561020a57868401515f19600387901b60f8161c191681555b50505050600190811b01905550565b611e0b806102265f395ff3fe608060405234801561000f575f5ffd5b506004361061013c575f3560e01c806373ad6c2d116100b4578063a22cb46511610079578063a22cb465146102ae578063abc8c7af146102c1578063bbbc6684146102d4578063e985e9c5146102e7578063f242432a14610322578063f2fde38b14610335575f5ffd5b806373ad6c2d146102395780638456cb591461024c5780638da5cb5b146102545780639bc8bd67146102795780639c7f02721461028c575f5ffd5b8063266d38b511610105578063266d38b5146101d15780632eb2c2d6146101e45780633f4ba83a146101f75780634e1273f4146101ff5780635c975abb1461021f578063715018a614610231575f5ffd5b8062fdd58e1461014057806301ffc9a7146101665780630e89341c14610189578063127af1f6146101a9578063162094c4146101be575b5f5ffd5b61015361014e3660046115c8565b610348565b6040519081526020015b60405180910390f35b610179610174366004611605565b61036f565b604051901515815260200161015d565b61019c610197366004611627565b6103be565b60405161015d919061166c565b6101bc6101b7366004611733565b61045d565b005b6101bc6101cc366004611733565b6104bb565b6101bc6101df366004611776565b6104da565b6101bc6101f2366004611832565b61061f565b6101bc61063e565b61021261020d3660046118de565b610650565b60405161015d91906119cf565b600354600160a01b900460ff16610179565b6101bc61071a565b6101bc6102473660046119e1565b61072b565b6101bc6107f0565b6003546001600160a01b03165b6040516001600160a01b03909116815260200161015d565b6101bc6102873660046119fa565b610800565b61017961029a366004611627565b60066020525f908152604090205460ff1681565b6101bc6102bc366004611a56565b6109cc565b600454610261906001600160a01b031681565b6101bc6102e2366004611627565b6109d7565b6101796102f5366004611a8f565b6001600160a01b039182165f90815260016020908152604080832093909416825291909152205460ff1690565b6101bc610330366004611ac0565b610a1e565b6101bc6103433660046119e1565b610a34565b5f818152602081815260408083206001600160a01b03861684529091529020545b92915050565b5f6001600160e01b03198216636cdb3d1360e11b148061039f57506001600160e01b031982166303a24d0760e21b145b8061036957506301ffc9a760e01b6001600160e01b0319831614610369565b5f8181526005602052604090208054606091906103da90611b13565b80601f016020809104026020016040519081016040528092919081815260200182805461040690611b13565b80156104515780601f1061042857610100808354040283529160200191610451565b820191905f5260205f20905b81548152906001019060200180831161043457829003601f168201915b50505050509050919050565b610465610a71565b5f8281526006602052604090819020805460ff191660011790555182907f8e038a114eb91e1add5ccbe1917fc02a9f9e8df6ca21bb16147cc9256e69e05c906104af90849061166c565b60405180910390a25050565b6104c3610a71565b6104cc81610a9e565b6104d68282610cb9565b5050565b6004546001600160a01b0316331461050d5760405162461bcd60e51b815260040161050490611b4b565b60405180910390fd5b610515610d01565b6001600160a01b03831661057c5760405162461bcd60e51b815260206004820152602860248201527f436172626f6e437265646974313135353a206275726e2066726f6d207a65726f604482015267206164647265737360c01b6064820152608401610504565b5f81116105cb5760405162461bcd60e51b815260206004820181905260248201527f436172626f6e437265646974313135353a20616d6f756e74206973207a65726f6044820152606401610504565b6105d6838383610d2c565b81836001600160a01b03167fa05b5c13e5d42938fe33e08f6f15da648a2a8cbb8c1fc80fa7549bcd4e2a4dad8360405161061291815260200190565b60405180910390a3505050565b61062a335b86610d93565b6106378585858585610e0b565b5050505050565b610646610a71565b61064e610e6b565b565b606081518351146106815781518351604051635b05999160e01b815260048101929092526024820152604401610504565b5f83516001600160401b0381111561069b5761069b61167e565b6040519080825280602002602001820160405280156106c4578160200160208202803683370190505b5090505f5b8451811015610712576020808202860101516106ed90602080840287010151610348565b8282815181106106ff576106ff611b96565b60209081029190910101526001016106c9565b509392505050565b610722610a71565b61064e5f610ec0565b610733610a71565b6001600160a01b03811661079f5760405162461bcd60e51b815260206004820152602d60248201527f436172626f6e437265646974313135353a206d61726b6574706c61636520697360448201526c207a65726f206164647265737360981b6064820152608401610504565b600480546001600160a01b038381166001600160a01b0319831681179093556040519116919082907fc3e7368ef0a668941a4115b651a9c4f3fa3a13cc6ea105bb91e12bcaa932293c905f90a35050565b6107f8610a71565b61064e610f11565b6004546001600160a01b0316331461082a5760405162461bcd60e51b815260040161050490611b4b565b610832610d01565b6001600160a01b0384166108975760405162461bcd60e51b815260206004820152602660248201527f436172626f6e437265646974313135353a206d696e7420746f207a65726f206160448201526564647265737360d01b6064820152608401610504565b5f82116108e65760405162461bcd60e51b815260206004820181905260248201527f436172626f6e437265646974313135353a20616d6f756e74206973207a65726f6044820152606401610504565b5f8381526006602052604090205460ff16156109555760405162461bcd60e51b815260206004820152602860248201527f436172626f6e437265646974313135353a2070726f6a65637420697320626c6160448201526718dadb1a5cdd195960c21b6064820152608401610504565b61095e81610a9e565b6109688382610cb9565b61098284848460405180602001604052805f815250610f54565b82846001600160a01b03167f085d46659066c2408552c460e271cf61223b595c9376c9db5ec5ff6056dc60a284846040516109be929190611baa565b60405180910390a350505050565b6104d6338383610fb8565b6109df610a71565b5f81815260066020526040808220805460ff191690555182917f5b38bef12ae5d22dbfbe6a6a741abec442eb518747f71b790c3c47394a87a19991a250565b610a2733610624565b610637858585858561106d565b610a3c610a71565b6001600160a01b038116610a6557604051631e4fbdf760e01b81525f6004820152602401610504565b610a6e81610ec0565b50565b6003546001600160a01b0316331461064e5760405163118cdaa760e01b8152336004820152602401610504565b8051819060071115610b015760405162461bcd60e51b815260206004820152602660248201527f436172626f6e437265646974313135353a20656d707479206f7220696e76616c60448201526569642055524960d01b6064820152608401610504565b805f81518110610b1357610b13611b96565b6020910101516001600160f81b031916606960f81b148015610b5a575080600181518110610b4357610b43611b96565b6020910101516001600160f81b031916600760fc1b145b8015610b8b575080600281518110610b7457610b74611b96565b6020910101516001600160f81b031916603360f91b145b8015610bbc575080600381518110610ba557610ba5611b96565b6020910101516001600160f81b031916607360f81b145b8015610bed575080600481518110610bd657610bd6611b96565b6020910101516001600160f81b031916601d60f91b145b8015610c1e575080600581518110610c0757610c07611b96565b6020910101516001600160f81b031916602f60f81b145b8015610c4f575080600681518110610c3857610c38611b96565b6020910101516001600160f81b031916602f60f81b145b6104d65760405162461bcd60e51b815260206004820152603560248201527f436172626f6e437265646974313135353a206d7573742062652076616c69642060448201527449504653205552492028697066733a2f2f2e2e2e2960581b6064820152608401610504565b5f828152600560205260409020610cd08282611c13565b50817f931f495b9a8e5d8e61946ea5d61e021f636cfe213a801f97589c18c152e408bd826040516104af919061166c565b600354600160a01b900460ff161561064e5760405163d93c066560e01b815260040160405180910390fd5b6001600160a01b038316610d5457604051626a0d4560e21b81525f6004820152602401610504565b604080516001808252602082018590528183019081526060820184905260a082019092525f6080820181815291929161063791879185908590836110fa565b816001600160a01b0316816001600160a01b031614158015610dda57506001600160a01b038082165f9081526001602090815260408083209386168352929052205460ff16155b156104d65760405163711bec9160e11b81526001600160a01b03808416600483015282166024820152604401610504565b6001600160a01b038416610e3457604051632bfa23e760e11b81525f6004820152602401610504565b6001600160a01b038516610e5c57604051626a0d4560e21b81525f6004820152602401610504565b610637858585858560016110fa565b610e73611152565b6003805460ff60a01b191690557f5db9ee0a495bf2e6ff9c91a7834c1ba4fdd244a5e8aa4e537bd38aeae4b073aa335b6040516001600160a01b03909116815260200160405180910390a1565b600380546001600160a01b038381166001600160a01b0319831681179093556040519116919082907f8be0079c531659141344cd1fd0a4f28419497f9722a3daafe3b4186f6b6457e0905f90a35050565b610f19610d01565b6003805460ff60a01b1916600160a01b1790557f62e78cea01bee320cd4e420270b5ea74000d11b0c9f74754ebdbfc544b05a258610ea33390565b6001600160a01b038416610f7d57604051632bfa23e760e11b81525f6004820152602401610504565b60408051600180825260208201869052818301908152606082018590526080820190925290610fb05f87848487846110fa565b505050505050565b6001600160a01b038316610fe157604051631f18c42760e11b81525f6004820152602401610504565b6001600160a01b0382166110095760405162ced3e160e81b81525f6004820152602401610504565b6001600160a01b038381165f81815260016020908152604080832094871680845294825291829020805460ff191686151590811790915591519182527f17307eab39ab6107e8899845ad3d59bd9653f200f220920489ca2b5937696c319101610612565b6001600160a01b03841661109657604051632bfa23e760e11b81525f6004820152602401610504565b6001600160a01b0385166110be57604051626a0d4560e21b81525f6004820152602401610504565b604080516001808252602082018690528183019081526060820185905260808201909252906110f187878484875f6110fa565b50505050505050565b6111068686868661117c565b6001600160a01b03851615610fb05733811561112f5761112a818888888888611196565b6110f1565b60208581015190850151611147838a8a85858a6112b7565b505050505050505050565b600354600160a01b900460ff1661064e57604051638dfc202b60e01b815260040160405180910390fd5b611184610d01565b6111908484848461139e565b50505050565b6001600160a01b0384163b15610fb05760405163bc197c8160e01b81526001600160a01b0385169063bc197c81906111da9089908990889088908890600401611ccd565b6020604051808303815f875af1925050508015611214575060408051601f3d908101601f1916820190925261121191810190611d2a565b60015b61127b573d808015611241576040519150601f19603f3d011682016040523d82523d5f602084013e611246565b606091505b5080515f0361127357604051632bfa23e760e11b81526001600160a01b0386166004820152602401610504565b805160208201fd5b6001600160e01b0319811663bc197c8160e01b146110f157604051632bfa23e760e11b81526001600160a01b0386166004820152602401610504565b6001600160a01b0384163b15610fb05760405163f23a6e6160e01b81526001600160a01b0385169063f23a6e61906112fb9089908990889088908890600401611d45565b6020604051808303815f875af1925050508015611335575060408051601f3d908101601f1916820190925261133291810190611d2a565b60015b611362573d808015611241576040519150601f19603f3d011682016040523d82523d5f602084013e611246565b6001600160e01b0319811663f23a6e6160e01b146110f157604051632bfa23e760e11b81526001600160a01b0386166004820152602401610504565b80518251146113cd5781518151604051635b05999160e01b815260048101929092526024820152604401610504565b335f5b83518110156114cf576020818102858101820151908501909101516001600160a01b03881615611481575f828152602081815260408083206001600160a01b038c1684529091529020548181101561145b576040516303dee4c560e01b81526001600160a01b038a166004820152602481018290526044810183905260648101849052608401610504565b5f838152602081815260408083206001600160a01b038d16845290915290209082900390555b6001600160a01b038716156114c5575f828152602081815260408083206001600160a01b038b168452909152812080548392906114bf908490611d89565b90915550505b50506001016113d0565b50825160010361154f5760208301515f906020840151909150856001600160a01b0316876001600160a01b0316846001600160a01b03167fc3d58168c5ae7397731d063d5bbf3d657854427343f4c083240f7aacaa2d0f628585604051611540929190918252602082015260400190565b60405180910390a45050610637565b836001600160a01b0316856001600160a01b0316826001600160a01b03167f4a39dc06d4c0dbc64b70af90fd698a233a518aa5d07e595d983b8c0526c8f7fb868660405161159e929190611da8565b60405180910390a45050505050565b80356001600160a01b03811681146115c3575f5ffd5b919050565b5f5f604083850312156115d9575f5ffd5b6115e2836115ad565b946020939093013593505050565b6001600160e01b031981168114610a6e575f5ffd5b5f60208284031215611615575f5ffd5b8135611620816115f0565b9392505050565b5f60208284031215611637575f5ffd5b5035919050565b5f81518084528060208401602086015e5f602082860101526020601f19601f83011685010191505092915050565b602081525f611620602083018461163e565b634e487b7160e01b5f52604160045260245ffd5b604051601f8201601f191681016001600160401b03811182821017156116ba576116ba61167e565b604052919050565b5f82601f8301126116d1575f5ffd5b8135602083015f5f6001600160401b038411156116f0576116f061167e565b50601f8301601f191660200161170581611692565b915050828152858383011115611719575f5ffd5b828260208301375f92810160200192909252509392505050565b5f5f60408385031215611744575f5ffd5b8235915060208301356001600160401b03811115611760575f5ffd5b61176c858286016116c2565b9150509250929050565b5f5f5f60608486031215611788575f5ffd5b611791846115ad565b95602085013595506040909401359392505050565b5f6001600160401b038211156117be576117be61167e565b5060051b60200190565b5f82601f8301126117d7575f5ffd5b81356117ea6117e5826117a6565b611692565b8082825260208201915060208360051b86010192508583111561180b575f5ffd5b602085015b83811015611828578035835260209283019201611810565b5095945050505050565b5f5f5f5f5f60a08688031215611846575f5ffd5b61184f866115ad565b945061185d602087016115ad565b935060408601356001600160401b03811115611877575f5ffd5b611883888289016117c8565b93505060608601356001600160401b0381111561189e575f5ffd5b6118aa888289016117c8565b92505060808601356001600160401b038111156118c5575f5ffd5b6118d1888289016116c2565b9150509295509295909350565b5f5f604083850312156118ef575f5ffd5b82356001600160401b03811115611904575f5ffd5b8301601f81018513611914575f5ffd5b80356119226117e5826117a6565b8082825260208201915060208360051b850101925087831115611943575f5ffd5b6020840193505b8284101561196c5761195b846115ad565b82526020938401939091019061194a565b945050505060208301356001600160401b03811115611989575f5ffd5b61176c858286016117c8565b5f8151808452602084019350602083015f5b828110156119c55781518652602095860195909101906001016119a7565b5093949350505050565b602081525f6116206020830184611995565b5f602082840312156119f1575f5ffd5b611620826115ad565b5f5f5f5f60808587031215611a0d575f5ffd5b611a16856115ad565b9350602085013592506040850135915060608501356001600160401b03811115611a3e575f5ffd5b611a4a878288016116c2565b91505092959194509250565b5f5f60408385031215611a67575f5ffd5b611a70836115ad565b915060208301358015158114611a84575f5ffd5b809150509250929050565b5f5f60408385031215611aa0575f5ffd5b611aa9836115ad565b9150611ab7602084016115ad565b90509250929050565b5f5f5f5f5f60a08688031215611ad4575f5ffd5b611add866115ad565b9450611aeb602087016115ad565b9350604086013592506060860135915060808601356001600160401b038111156118c5575f5ffd5b600181811c90821680611b2757607f821691505b602082108103611b4557634e487b7160e01b5f52602260045260245ffd5b50919050565b6020808252602b908201527f436172626f6e437265646974313135353a2063616c6c6572206973206e6f742060408201526a6d61726b6574706c61636560a81b606082015260800190565b634e487b7160e01b5f52603260045260245ffd5b828152604060208201525f611bc2604083018461163e565b949350505050565b601f821115611c0e57805f5260205f20601f840160051c81016020851015611bef5750805b601f840160051c820191505b81811015610637575f8155600101611bfb565b505050565b81516001600160401b03811115611c2c57611c2c61167e565b611c4081611c3a8454611b13565b84611bca565b6020601f821160018114611c72575f8315611c5b5750848201515b5f19600385901b1c1916600184901b178455610637565b5f84815260208120601f198516915b82811015611ca15787850151825560209485019460019092019101611c81565b5084821015611cbe57868401515f19600387901b60f8161c191681555b50505050600190811b01905550565b6001600160a01b0386811682528516602082015260a0604082018190525f90611cf890830186611995565b8281036060840152611d0a8186611995565b90508281036080840152611d1e818561163e565b98975050505050505050565b5f60208284031215611d3a575f5ffd5b8151611620816115f0565b6001600160a01b03868116825285166020820152604081018490526060810183905260a0608082018190525f90611d7e9083018461163e565b979650505050505050565b8082018082111561036957634e487b7160e01b5f52601160045260245ffd5b604081525f611dba6040830185611995565b8281036020840152611dcc8185611995565b9594505050505056fea2646970667358221220d95c556c9472bd2d74babf04b6e04afef67e77e4d9c10fefddc4089107480b1d64736f6c634300081c0033",
  "linkReferences": {},
  "deployedLinkReferences": {},
  "immutableReferences": {},
  "inputSourceName": "project/contracts/CarbonCredit1155.sol",
  "buildInfoId": "solc-0_8_28-1a25d4b03c06643d660afb173030a40c1eefdf04"
}