{
  "_format": "hh3-artifact-1",
  "contractName": "CarbonMarketplace",
  "sourceName": "contracts/CarbonMarketplace.sol",
  "abi": [
    {
      "inputs": [
        {
          "internalType": "address",
          "name": "carbonCreditAddress",
          "type": "address"
        },
        {
          "internalType": "address",
          "name": "certificateNFTAddress",
          "type": "address"
        }
      ],
      "stateMutability": "nonpayable",
      "type": "constructor"
    },
    {
      "inputs": [],
      "name": "EnforcedPause",
      "type": "error"
    },
    {
      "inputs": [],
      "name": "ExpectedPause",
      "type": "error"
    },
    {
      "inputs": [
        {
          "internalType": "address",
          "name": "owner",
          "type": "address"
        }
      ],
      "name": "OwnableInvalidOwner",
      "type": "error"
    },
    {
      "inputs": [
        {
          "internalType": "address",
          "name": "account",
          "type": "address"
        }
      ],
      "name": "OwnableUnauthorizedAccount",
      "type": "error"
    },
    {
      "inputs": [],
      "name": "ReentrancyGuardReentrantCall",
      "type": "error"
    },
    {
      "anonymous": false,
      "inputs": [
        {
          "indexed": true,
          "internalType": "uint256",
          "name": "listingId",
          "type": "uint256"
        },
        {
          "indexed": true,
          "internalType": "address",
          "name": "buyer",
          "type": "address"
        },
        {
          "indexed": false,
          "internalType": "uint256",
          "name": "amount",
          "type": "uint256"
        },
        {
          "indexed": false,
          "internalType": "uint256",
          "name": "totalPrice",
          "type": "uint256"
        },
        {
          "indexed": false,
          "internalType": "uint256",
          "name": "feePaid",
          "type": "uint256"
        }
      ],
      "name": "CreditsPurchased",
      "type": "event"
    },
    {
      "anonymous": false,
      "inputs": [
        {
          "indexed": true,
          "internalType": "address",
          "name": "buyer",
          "type": "address"
        },
        {
          "indexed": true,
          "internalType": "uint256",
          "name": "projectId",
          "type": "uint256"
        },
        {
          "indexed": false,
          "internalType": "uint256",
          "name": "tokenAmount",
          "type": "uint256"
        },
        {
          "indexed": false,
          "internalType": "uint256",
          "name": "co2Kg",
          "type": "uint256"
        },
        {
          "indexed": false,
          "internalType": "uint256",
          "name": "certificateTokenId",
          "type": "uint256"
        }
      ],
      "name": "CreditsRetired",
      "type": "event"
    },
    {
      "anonymous": false,
      "inputs": [
        {
          "indexed": true,
          "internalType": "uint256",
          "name": "listingId",
          "type": "uint256"
        },
        {
          "indexed": true,
          "internalType": "address",
          "name": "initiator",
          "type": "address"
        },
        {
          "indexed": false,
          "internalType": "string",
          "name": "reason",
          "type": "string"
        }
      ],
      "name": "DisputeOpened",
      "type": "event"
    },
    {
      "anonymous": false,
      "inputs": [
        {
          "indexed": true,
          "internalType": "uint256",
          "name": "listingId",
          "type": "uint256"
        },
        {
          "indexed": false,
          "internalType": "bool",
          "name": "sellerPenalized",
          "type": "bool"
        }
      ],
      "name": "DisputeResolved",
      "type": "event"
    },
    {
      "anonymous": false,
      "inputs": [
        {
          "indexed": true,
          "internalType": "uint256",
          "name": "listingId",
          "type": "uint256"
        }
      ],
      "name": "ListingCancelled",
      "type": "event"
    },
    {
      "anonymous": false,
      "inputs": [
        {
          "indexed": true,
          "internalType": "uint256",
          "name": "listingId",
          "type": "uint256"
        },
        {
          "indexed": true,
          "internalType": "uint256",
          "name": "projectId",
          "type": "uint256"
        },
        {
          "indexed": true,
          "internalType": "address",
          "name": "seller",
          "type": "address"
        },
        {
          "indexed": false,
          "internalType": "uint256",
          "name": "amount",
          "type": "uint256"
        },
        {
          "indexed": false,
          "internalType": "uint256",
          "name": "pricePerUnit",
          "type": "uint256"
        }
      ],
      "name": "ListingCreated",
      "type": "event"
    },
    {
      "anonymous": false,
      "inputs": [
        {
          "indexed": true,
          "internalType": "address",
          "name": "previousOwner",
          "type": "address"
        },
        {
          "indexed": true,
          "internalType": "address",
          "name": "newOwner",
          "type": "address"
        }
      ],
      "name": "OwnershipTransferred",
      "type": "event"
    },
    {
      "anonymous": false,
      "inputs": [
        {
          "indexed": false,
          "internalType": "address",
          "name": "account",
          "type": "address"
        }
      ],
      "name": "Paused",
      "type": "event"
    },
    {
      "anonymous": false,
      "inputs": [
        {
          "indexed": true,
          "internalType": "uint256",
          "name": "projectId",
          "type": "uint256"
        },
        {
          "indexed": true,
          "internalType": "address",
          "name": "validator",
          "type": "address"
        },
        {
          "indexed": false,
          "internalType": "bool",
          "name": "approved",
          "type": "bool"
        }
      ],
      "name": "ProjectApprovalVoted",
      "type": "event"
    },
    {
      "anonymous": false,
      "inputs": [
        {
          "indexed": true,
          "internalType": "uint256",
          "name": "projectId",
          "type": "uint256"
        },
        {
          "indexed": true,
          "internalType": "address",
          "name": "approvedBy",
          "type": "address"
        },
        {
          "indexed": false,
          "internalType": "uint256",
          "name": "approvedCO2Kg",
          "type": "uint256"
        },
        {
          "indexed": false,
          "internalType": "uint256",
          "name": "tokenAmount",
          "type": "uint256"
        }
      ],
      "name": "ProjectApproved",
      "type": "event"
    },
    {
      "anonymous": false,
      "inputs": [
        {
          "indexed": true,
          "internalType": "uint256",
          "name": "projectId",
          "type": "uint256"
        },
        {
          "indexed": true,
          "internalType": "address",
          "name": "owner",
          "type": "address"
        },
        {
          "indexed": false,
          "internalType": "string",
          "name": "projectURI",
          "type": "string"
        },
        {
          "indexed": false,
          "internalType": "uint256",
          "name": "proposedCO2Kg",
          "type": "uint256"
        }
      ],
      "name": "ProjectSubmitted",
      "type": "event"
    },
    {
      "anonymous": false,
      "inputs": [
        {
          "indexed": true,
          "internalType": "address",
          "name": "to",
          "type": "address"
        },
        {
          "indexed": false,
          "internalType": "uint256",
          "name": "amount",
          "type": "uint256"
        }
      ],
      "name": "TreasuryClaimed",
      "type": "event"
    },
    {
      "anonymous": false,
      "inputs": [
        {
          "indexed": false,
          "internalType": "address",
          "name": "account",
          "type": "address"
        }
      ],
      "name": "Unpaused",
      "type": "event"
    },
    {
      "anonymous": false,
      "inputs": [
        {
          "indexed": true,
          "internalType": "address",
          "name": "validator",
          "type": "address"
        }
      ],
      "name": "ValidatorAdded",
      "type": "event"
    },
    {
      "anonymous": false,
      "inputs": [
        {
          "indexed": true,
          "internalType": "address",
          "name": "validator",
          "type": "address"
        }
      ],
      "name": "ValidatorRemoved",
      "type": "event"
    },
    {
      "inputs": [],
      "name": "KG_CO2_PER_TOKEN",
      "outputs": [
        {
          "internalType": "uint256",
          "name": "",
          "type": "uint256"
        }
      ],
      "stateMutability": "view",
      "type": "function"
    },
    {
      "inputs": [
        {
          "internalType": "address",
          "name": "validator",
          "type": "address"
        }
      ],
      "name": "addValidator",
      "outputs": [],
      "stateMutability": "nonpayable",
      "type": "function"
    },
    {
      "inputs": [
        {
          "internalType": "uint256",
          "name": "projectId",
          "type": "uint256"
        },
        {
          "internalType": "uint256",
          "name": "approvedCO2Kg",
          "type": "uint256"
        },
        {
          "internalType": "string",
          "name": "tokenURI",
          "type": "string"
        }
      ],
      "name": "approveAndMint",
      "outputs": [],
      "stateMutability": "nonpayable",
      "type": "function"
    },
    {
      "inputs": [
        {
          "internalType": "address",
          "name": "",
          "type": "address"
        }
      ],
      "name": "blacklistedOwners",
      "outputs": [
        {
          "internalType": "bool",
          "name": "",
          "type": "bool"
        }
      ],
      "stateMutability": "view",
      "type": "function"
    },
    {
      "inputs": [
        {
          "internalType": "uint256",
          "name": "listingId",
          "type": "uint256"
        },
        {
          "internalType": "uint256",
          "name": "amount",
          "type": "uint256"
        }
      ],
      "name": "buyCredits",
      "outputs": [],
      "stateMutability": "payable",
      "type": "function"
    },
    {
      "inputs": [
        {
          "internalType": "uint256",
          "name": "",
          "type": "uint256"
        },
        {
          "internalType": "address",
          "name": "",
          "type": "address"
        }
      ],
      "name": "buyerPurchased",
      "outputs": [
        {
          "internalType": "uint256",
          "name": "",
          "type": "uint256"
        }
      ],
      "stateMutability": "view",
      "type": "function"
    },
    {
      "inputs": [
        {
          "internalType": "uint256",
          "name": "listingId",
          "type": "uint256"
        }
      ],
      "name": "cancelListing",
      "outputs": [],
      "stateMutability": "nonpayable",
      "type": "function"
    },
    {
      "inputs": [],
      "name": "carbonCredit",
      "outputs": [
        {
          "internalType": "contract CarbonCredit1155",
          "name": "",
          "type": "address"
        }
      ],
      "stateMutability": "view",
      "type": "function"
    },
    {
      "inputs": [],
      "name": "certificateNFT",
      "outputs": [
        {
          "internalType": "contract GreenCertificateNFT",
          "name": "",
          "type": "address"
        }
      ],
      "stateMutability": "view",
      "type": "function"
    },
    {
      "inputs": [
        {
          "internalType": "address payable",
          "name": "to",
          "type": "address"
        },
        {
          "internalType": "uint256",
          "name": "amount",
          "type": "uint256"
        }
      ],
      "name": "claimTreasury",
      "outputs": [],
      "stateMutability": "nonpayable",
      "type": "function"
    },
    {
      "inputs": [
        {
          "internalType": "uint256",
          "name": "projectId",
          "type": "uint256"
        },
        {
          "internalType": "uint256",
          "name": "amount",
          "type": "uint256"
        },
        {
          "internalType": "uint256",
          "name": "pricePerUnit",
          "type": "uint256"
        }
      ],
      "name": "createListing",
      "outputs": [],
      "stateMutability": "nonpayable",
      "type": "function"
    },
    {
      "inputs": [
        {
          "internalType": "uint256",
          "name": "",
          "type": "uint256"
        }
      ],
      "name": "disputes",
      "outputs": [
        {
          "internalType": "uint256",
          "name": "listingId",
          "type": "uint256"
        },
        {
          "internalType": "address",
          "name": "initiator",
          "type": "address"
        },
        {
          "internalType": "string",
          "name": "reason",
          "type": "string"
        },
        {
          "internalType": "uint256",
          "name": "votes",
          "type": "uint256"
        },
        {
          "internalType": "bool",
          "name": "active",
          "type": "bool"
        }
      ],
      "stateMutability": "view",
      "type": "function"
    },
    {
      "inputs": [],
      "name": "getValidatorsCount",
      "outputs": [
        {
          "internalType": "uint256",
          "name": "",
          "type": "uint256"
        }
      ],
      "stateMutability": "view",
      "type": "function"
    },
    {
      "inputs": [
        {
          "internalType": "uint256",
          "name": "",
          "type": "uint256"
        },
        {
          "internalType": "address",
          "name": "",
          "type": "address"
        }
      ],
      "name": "hasVotedOnDispute",
      "outputs": [
        {
          "internalType": "bool",
          "name": "",
          "type": "bool"
        }
      ],
      "stateMutability": "view",
      "type": "function"
    },
    {
      "inputs": [
        {
          "internalType": "uint256",
          "name": "",
          "type": "uint256"
        },
        {
          "internalType": "address",
          "name": "",
          "type": "address"
        }
      ],
      "name": "hasVotedOnProject",
      "outputs": [
        {
          "internalType": "bool",
          "name": "",
          "type": "bool"
        }
      ],
      "stateMutability": "view",
      "type": "function"
    },
    {
      "inputs": [
        {
          "internalType": "address",
          "name": "",
          "type": "address"
        }
      ],
      "name": "isValidator",
      "outputs": [
        {
          "internalType": "bool",
          "name": "",
          "type": "bool"
        }
      ],
      "stateMutability": "view",
      "type": "function"
    },
    {
      "inputs": [
        {
          "internalType": "uint256",
          "name": "",
          "type": "uint256"
        }
      ],
      "name": "listingApprovalVotes",
      "outputs": [
        {
          "internalType": "uint256",
          "name": "",
          "type": "uint256"
        }
      ],
      "stateMutability": "view",
      "type": "function"
    },
    {
      "inputs": [
        {
          "internalType": "uint256",
          "name": "",
          "type": "uint256"
        }
      ],
      "name": "listings",
      "outputs": [
        {
          "internalType": "uint256",
          "name": "listingId",
          "type": "uint256"
        },
        {
          "internalType": "uint256",
          "name": "projectId",
          "type": "uint256"
        },
        {
          "internalType": "address",
          "name": "seller",
          "type": "address"
        },
        {
          "internalType": "uint256",
          "name": "amount",
          "type": "uint256"
        },
        {
          "internalType": "uint256",
          "name": "pricePerUnit",
          "type": "uint256"
        },
        {
          "internalType": "bool",
          "name": "active",
          "type": "bool"
        },
        {
          "internalType": "uint256",
          "name": "createdAt",
          "type": "uint256"
        }
      ],
      "stateMutability": "view",
      "type": "function"
    },
    {
      "inputs": [],
      "name": "maxPrice",
      "outputs": [
        {
          "internalType": "uint256",
          "name": "",
          "type": "uint256"
        }
      ],
      "stateMutability": "view",
      "type": "function"
    },
    {
      "inputs": [],
      "name": "minPrice",
      "outputs": [
        {
          "internalType": "uint256",
          "name": "",
          "type": "uint256"
        }
      ],
      "stateMutability": "view",
      "type": "function"
    },
    {
      "inputs": [],
      "name": "nextListingId",
      "outputs": [
        {
          "internalType": "uint256",
          "name": "",
          "type": "uint256"
        }
      ],
      "stateMutability": "view",
      "type": "function"
    },
    {
      "inputs": [],
      "name": "nextProjectId",
      "outputs": [
        {
          "internalType": "uint256",
          "name": "",
          "type": "uint256"
        }
      ],
      "stateMutability": "view",
      "type": "function"
    },
    {
      "inputs": [
        {
          "internalType": "address",
          "name": "",
          "type": "address"
        },
        {
          "internalType": "address",
          "name": "",
          "type": "address"
        },
        {
          "internalType": "uint256[]",
          "name": "",
          "type": "uint256[]"
        },
        {
          "internalType": "uint256[]",
          "name": "",
          "type": "uint256[]"
        },
        {
          "internalType": "bytes",
          "name": "",
          "type": "bytes"
        }
      ],
      "name": "onERC1155BatchReceived",
      "outputs": [
        {
          "internalType": "bytes4",
          "name": "",
          "type": "bytes4"
        }
      ],
      "stateMutability": "nonpayable",
      "type": "function"
    },
    {
      "inputs": [
        {
          "internalType": "address",
          "name": "",
          "type": "address"
        },
        {
          "internalType": "address",
          "name": "",
          "type": "address"
        },
        {
          "internalType": "uint256",
          "name": "",
          "type": "uint256"
        },
        {
          "internalType": "uint256",
          "name": "",
          "type": "uint256"
        },
        {
          "internalType": "bytes",
          "name": "",
          "type": "bytes"
        }
      ],
      "name": "onERC1155Received",
      "outputs": [
        {
          "internalType": "bytes4",
          "name": "",
          "type": "bytes4"
        }
      ],
      "stateMutability": "nonpayable",
      "type": "function"
    },
    {
      "inputs": [
        {
          "internalType": "uint256",
          "name": "listingId",
          "type": "uint256"
        },
        {
          "internalType": "string",
          "name": "reason",
          "type": "string"
        }
      ],
      "name": "openDispute",
      "outputs": [],
      "stateMutability": "nonpayable",
      "type": "function"
    },
    {
      "inputs": [],
      "name": "owner",
      "outputs": [
        {
          "internalType": "address",
          "name": "",
          "type": "address"
        }
      ],
      "stateMutability": "view",
      "type": "function"
    },
    {
      "inputs": [],
      "name": "paused",
      "outputs": [
        {
          "internalType": "bool",
          "name": "",
          "type": "bool"
        }
      ],
      "stateMutability": "view",
      "type": "function"
    },
    {
      "inputs": [],
      "name": "platformFeeBps",
      "outputs": [
        {
          "internalType": "uint256",
          "name": "",
          "type": "uint256"
        }
      ],
      "stateMutability": "view",
      "type": "function"
    },
    {
      "inputs": [
        {
          "internalType": "uint256",
          "name": "",
          "type": "uint256"
        }
      ],
      "name": "projects",
      "outputs": [
        {
          "internalType": "uint256",
          "name": "projectId",
          "type": "uint256"
        },
        {
          "internalType": "address",
          "name": "owner",
          "type": "address"
        },
        {
          "internalType": "string",
          "name": "projectURI",
          "type": "string"
        },
        {
          "internalType": "uint256",
          "name": "proposedCO2Kg",
          "type": "uint256"
        },
        {
          "internalType": "uint256",
          "name": "approvedCO2Kg",
          "type": "uint256"
        },
        {
          "internalType": "bool",
          "name": "approved",
          "type": "bool"
        },
        {
          "internalType": "bool",
          "name": "blacklisted",
          "type": "bool"
        },
        {
          "internalType": "uint256",
          "name": "createdAt",
          "type": "uint256"
        },
        {
          "internalType": "bool",
          "name": "exists",
          "type": "bool"
        }
      ],
      "stateMutability": "view",
      "type": "function"
    },
    {
      "inputs": [
        {
          "internalType": "address",
          "name": "validator",
          "type": "address"
        }
      ],
      "name": "removeValidator",
      "outputs": [],
      "stateMutability": "nonpayable",
      "type": "function"
    },
    {
      "inputs": [],
      "name": "renounceOwnership",
      "outputs": [],
      "stateMutability": "nonpayable",
      "type": "function"
    },
    {
      "inputs": [
        {
          "internalType": "uint256",
          "name": "listingId",
          "type": "uint256"
        },
        {
          "internalType": "bool",
          "name": "penalizeSeller",
          "type": "bool"
        }
      ],
      "name": "resolveDispute",
      "outputs": [],
      "stateMutability": "nonpayable",
      "type": "function"
    },
    {
      "inputs": [
        {
          "internalType": "uint256",
          "name": "projectId",
          "type": "uint256"
        },
        {
          "internalType": "uint256",
          "name": "amount",
          "type": "uint256"
        },
        {
          "internalType": "string",
          "name": "certificateURI",
          "type": "string"
        }
      ],
      "name": "retireCredits",
      "outputs": [],
      "stateMutability": "nonpayable",
      "type": "function"
    },
    {
      "inputs": [
        {
          "internalType": "address",
          "name": "",
          "type": "address"
        }
      ],
      "name": "sellerBalances",
      "outputs": [
        {
          "internalType": "uint256",
          "name": "",
          "type": "uint256"
        }
      ],
      "stateMutability": "view",
      "type": "function"
    },
    {
      "inputs": [
        {
          "internalType": "string",
          "name": "projectURI",
          "type": "string"
        },
        {
          "internalType": "uint256",
          "name": "proposedCO2Kg",
          "type": "uint256"
        }
      ],
      "name": "submitProject",
      "outputs": [],
      "stateMutability": "nonpayable",
      "type": "function"
    },
    {
      "inputs": [
        {
          "internalType": "bytes4",
          "name": "interfaceId",
          "type": "bytes4"
        }
      ],
      "name": "supportsInterface",
      "outputs": [
        {
          "internalType": "bool",
          "name": "",
          "type": "bool"
        }
      ],
      "stateMutability": "view",
      "type": "function"
    },
    {
      "inputs": [
        {
          "internalType": "address",
          "name": "newOwner",
          "type": "address"
        }
      ],
      "name": "transferOwnership",
      "outputs": [],
      "stateMutability": "nonpayable",
      "type": "function"
    },
    {
      "inputs": [],
      "name": "treasuryBalance",
      "outputs": [
        {
          "internalType": "uint256",
          "name": "",
          "type": "uint256"
        }
      ],
      "stateMutability": "view",
      "type": "function"
    },
    {
      "inputs": [
        {
          "internalType": "uint256",
          "name": "_newFeeBps",
          "type": "uint256"
        }
      ],
      "name": "updatePlatformFee",
      "outputs": [],
      "stateMutability": "nonpayable",
      "type": "function"
    },
    {
      "inputs": [
        {
          "internalType": "uint256",
          "name": "_min",
          "type": "uint256"
        },
        {
          "internalType": "uint256",
          "name": "_max",
          "type": "uint256"
        }
      ],
      "name": "updatePriceRange",
      "outputs": [],
      "stateMutability": "nonpayable",
      "type": "function"
    },
    {
      "inputs": [
        {
          "internalType": "uint256",
          "name": "",
          "type": "uint256"
        }
      ],
      "name": "validators",
      "outputs": [
        {
          "internalType": "address",
          "name": "",
          "type": "address"
        }
      ],
      "stateMutability": "view",
      "type": "function"
    },
    {
      "inputs": [
        {
          "internalType": "uint256",
          "name": "projectId",
          "type": "uint256"
        },
        {
          "internalType": "bool",
          "name": "approve",
          "type": "bool"
        }
      ],
      "name": "voteOnProject",
      "outputs": [],
      "stateMutability": "nonpayable",
      "type": "function"
    },
    {
      "inputs": [],
      "name": "withdrawProceeds",
      "outputs": [],
      "stateMutability": "nonpayable",
      "type": "function"
    },
    {
      "stateMutability": "payable",
      "type": "receive"
    }
  ],
  "bytecode": "0x608060405266038d7ea4c68000600155683635c9adc5dea0000060025560c860035534801561002c575f5ffd5b5060405161348738038061348783398101604081905261004b9161018d565b338061007057604051631e4fbdf760e01b81525f600482015260240160405180910390fd5b61007981610123565b5060017f9b779b17422d0df92223018b32b4d1fa46e071723d6817e2486d003becc55f0055600580546001600160a01b03199081166001600160a01b039485161790915560068054821692909316919091179091556009805460018181019092557f6e1540171b6c0c960b71a7020d9f60077f6af931a8bbf590da0223dacf75c7af018054339316831790555f918252600a6020526040909120805460ff191690911790556101be565b5f80546001600160a01b038381166001600160a01b0319831681178455604051919092169283917f8be0079c531659141344cd1fd0a4f28419497f9722a3daafe3b4186f6b6457e09190a35050565b80516001600160a01b0381168114610188575f5ffd5b919050565b5f5f6040838503121561019e575f5ffd5b6101a783610172565b91506101b560208401610172565b90509250929050565b6132bc806101cb5f395ff3fe608060405260043610610257575f3560e01c8063795f07ff1161013f578063bc197c81116100b3578063e38d6b5c11610078578063e38d6b5c1461081a578063e45be8eb1461082f578063e935b7b114610844578063f23a6e6114610859578063f2fde38b14610884578063facd743b146108a3575f5ffd5b8063bc197c81146106aa578063c081ec96146106ee578063c3a8fb341461070d578063c97fc1c714610746578063de74e57b14610774575f5ffd5b80639b3bce08116101045780639b3bce08146105c9578063a6b0ad5314610602578063a9ac1c2d14610621578063aa0b598814610657578063aaccf1ec14610676578063b03053b61461068b575f5ffd5b8063795f07ff146105305780638da5cb5b1461055b5780639038e6931461057757806391aec72a1461058b578063963408a1146105aa575f5ffd5b806336f691c4116101d6578063564a565d1161019b578063564a565d146104665780635b4c9dfd146104965780635c975abb146104b5578063607eb4e4146104d2578063637bf795146104fd578063715018a61461051c575f5ffd5b806336f691c4146103d757806340a141ff146103f65780634339e61214610415578063479c8457146104345780634d238c8e14610447575f5ffd5b8063274982401161021c5780632749824014610339578063305a67a81461034d578063313dab201461036c57806334b25ee21461038157806335aa2e44146103a0575f5ffd5b806301ffc9a7146102795780630ddf4f9f146102ad578063107046bd146102ce578063177e55e11461030257806322dcd13e14610324575f5ffd5b36610275573460045f82825461026d919061290d565b925050819055005b5f5ffd5b348015610284575f5ffd5b50610298610293366004612920565b6108d1565b60405190151581526020015b60405180910390f35b3480156102b8575f5ffd5b506102cc6102c7366004612962565b610907565b005b3480156102d9575f5ffd5b506102ed6102e836600461298c565b610a5e565b6040516102a4999897969594939291906129d1565b34801561030d575f5ffd5b50610316600a81565b6040519081526020016102a4565b34801561032f575f5ffd5b5061031660035481565b348015610344575f5ffd5b50600954610316565b348015610358575f5ffd5b506102cc61036736600461298c565b610b3e565b348015610377575f5ffd5b5061031660045481565b34801561038c575f5ffd5b506102cc61039b366004612a31565b610d06565b3480156103ab575f5ffd5b506103bf6103ba36600461298c565b610f36565b6040516001600160a01b0390911681526020016102a4565b3480156103e2575f5ffd5b506102cc6103f1366004612b1a565b610f5e565b348015610401575f5ffd5b506102cc610410366004612b5e565b611197565b348015610420575f5ffd5b506102cc61042f366004612a31565b6113ca565b6102cc610442366004612b79565b611622565b348015610452575f5ffd5b506102cc610461366004612b5e565b611970565b348015610471575f5ffd5b5061048561048036600461298c565b611adf565b6040516102a4959493929190612b99565b3480156104a1575f5ffd5b506102cc6104b0366004612bdb565b611ba1565b3480156104c0575f5ffd5b505f54600160a01b900460ff16610298565b3480156104dd575f5ffd5b506103166104ec366004612b5e565b600e6020525f908152604090205481565b348015610508575f5ffd5b506005546103bf906001600160a01b031681565b348015610527575f5ffd5b506102cc611e16565b34801561053b575f5ffd5b5061031661054a36600461298c565b60106020525f908152604090205481565b348015610566575f5ffd5b505f546001600160a01b03166103bf565b348015610582575f5ffd5b506102cc611e29565b348015610596575f5ffd5b506006546103bf906001600160a01b031681565b3480156105b5575f5ffd5b506102cc6105c4366004612b79565b611f2a565b3480156105d4575f5ffd5b506102986105e3366004612c27565b601160209081525f928352604080842090915290825290205460ff1681565b34801561060d575f5ffd5b506102cc61061c366004612c4a565b611f83565b34801561062c575f5ffd5b5061031661063b366004612c27565b600f60209081525f928352604080842090915290825290205481565b348015610662575f5ffd5b506102cc61067136600461298c565b6121f8565b348015610681575f5ffd5b5061031660085481565b348015610696575f5ffd5b506102cc6106a5366004612c8c565b61226e565b3480156106b5575f5ffd5b506106d56106c4366004612d35565b63bc197c8160e01b95945050505050565b6040516001600160e01b031990911681526020016102a4565b3480156106f9575f5ffd5b506102cc610708366004612bdb565b61255a565b348015610718575f5ffd5b50610298610727366004612c27565b601360209081525f928352604080842090915290825290205460ff1681565b348015610751575f5ffd5b50610298610760366004612b5e565b600b6020525f908152604090205460ff1681565b34801561077f575f5ffd5b506107d761078e36600461298c565b600d6020525f90815260409020805460018201546002830154600384015460048501546005860154600690960154949593946001600160a01b03909316939192909160ff169087565b6040805197885260208801969096526001600160a01b03909416948601949094526060850191909152608084015290151560a083015260c082015260e0016102a4565b348015610825575f5ffd5b5061031660025481565b34801561083a575f5ffd5b5061031660015481565b34801561084f575f5ffd5b5061031660075481565b348015610864575f5ffd5b506106d5610873366004612de8565b63f23a6e6160e01b95945050505050565b34801561088f575f5ffd5b506102cc61089e366004612b5e565b6127cd565b3480156108ae575f5ffd5b506102986108bd366004612b5e565b600a6020525f908152604090205460ff1681565b5f6001600160e01b03198216630271189760e51b148061090157506301ffc9a760e01b6001600160e01b03198316145b92915050565b61090f61280a565b610917612836565b60045481111561097c5760405162461bcd60e51b815260206004820152602560248201527f436172626f6e4d61726b6574706c6163653a20517579206b686f6e6720647520604482015264736f20647560d81b60648201526084015b60405180910390fd5b8060045f82825461098d9190612e40565b90915550506040515f906001600160a01b0384169083908381818185875af1925050503d805f81146109da576040519150601f19603f3d011682016040523d82523d5f602084013e6109df565b606091505b5050905080610a005760405162461bcd60e51b815260040161097390612e53565b826001600160a01b03167f0dafe5fda3d3c12f5534ba82c4393aaf90fe68d6198d310d71a7d9a6ea3cc1e083604051610a3b91815260200190565b60405180910390a250610a5a60015f5160206132675f395f51905f5255565b5050565b600c6020525f908152604090208054600182015460028301805492936001600160a01b0390921692610a8f90612ea4565b80601f0160208091040260200160405190810160405280929190818152602001828054610abb90612ea4565b8015610b065780601f10610add57610100808354040283529160200191610b06565b820191905f5260205f20905b815481529060010190602001808311610ae957829003601f168201915b5050505060038301546004840154600585015460068601546007909601549495929491935060ff808216936101009092048116921689565b5f818152600d6020526040902060028101546001600160a01b03163314610bb75760405162461bcd60e51b815260206004820152602760248201527f436172626f6e4d61726b6574706c6163653a204b686f6e672070686169206e676044820152663ab7b4903130b760c91b6064820152608401610973565b600581015460ff16610bdb5760405162461bcd60e51b815260040161097390612edc565b5f8281526012602052604090206004015460ff1615610c625760405162461bcd60e51b815260206004820152603760248201527f436172626f6e4d61726b6574706c6163653a204b686f6e67207468652068757960448201527f206b68692064616e6720636f207472616e6820636861700000000000000000006064820152608401610973565b6005808201805460ff191690555460018201546003830154604051637921219560e11b81526001600160a01b039093169263f242432a92610cab92309233929190600401612f27565b5f604051808303815f87803b158015610cc2575f5ffd5b505af1158015610cd4573d5f5f3e3d5ffd5b50506040518492507f411aee90354c51b1b04cd563fcab2617142a9d50da19232d888547c8a1b7fd8a91505f90a25050565b335f908152600a602052604090205460ff16610d345760405162461bcd60e51b815260040161097390612f5e565b5f828152601260205260409020600481015460ff16610db05760405162461bcd60e51b815260206004820152603260248201527f436172626f6e4d61726b6574706c6163653a204b686f6e6720636f207472616e604482015271682063686170206e616f2064616e67206d6f60701b6064820152608401610973565b5f83815260136020908152604080832033845290915290205460ff1615610e335760405162461bcd60e51b815260206004820152603160248201527f436172626f6e4d61726b6574706c6163653a20446120626f2070686965752063604482015270686f207472616e682063686170206e617960781b6064820152608401610973565b5f8381526013602090815260408083203384529091529020805460ff191660011790558115610e7357600381018054905f610e6d83612faf565b91905055505b600954610e8290600290612fc7565b610e8d90600161290d565b816003015410610f31576004818101805460ff199081169091555f858152600d602090815260408083206005810180549095169094556002909301546001600160a01b03168252600e90529081208054908290558254909283929091610ef490849061290d565b90915550506040516001815284907f5a87909bff68caaaaf0b3fd9c74eeccc928832f879315e5c6fb7a73612f26c0c9060200160405180910390a2505b505050565b60098181548110610f45575f80fd5b5f918252602090912001546001600160a01b0316905081565b5f828152600d602052604090206005015460ff16610f8e5760405162461bcd60e51b815260040161097390612edc565b5f8281526012602052604090206004015460ff16156110085760405162461bcd60e51b815260206004820152603060248201527f436172626f6e4d61726b6574706c6163653a204461207861792072612074726160448201526f6e682063686170207472756f6320646f60801b6064820152608401610973565b5f828152600f6020908152604080832033845290915290205415158061103c5750335f908152600a602052604090205460ff165b6110bf5760405162461bcd60e51b815260206004820152604860248201527f436172626f6e4d61726b6574706c6163653a20436869206e67756f69206d756160448201527f20686f61632076616c696461746f72206d6f6920636f20746865206d6f2074726064820152670616e6820636861760c41b608482015260a401610973565b6040805160a0810182528381523360208083019182528284018581525f6060850181905260016080860181905288825260129093529490942083518155915190820180546001600160a01b0319166001600160a01b03909216919091179055915190919060028201906111329082613031565b50606082015160038201556080909101516004909101805460ff1916911515919091179055604051339083907f9b58afa035c5fa58f85c5a54b65bd3562d5aa7679e973bc1404fe25e8babab219061118b9085906130ec565b60405180910390a35050565b61119f61280a565b6001600160a01b0381165f908152600a602052604090205460ff166112165760405162461bcd60e51b815260206004820152602760248201527f436172626f6e4d61726b6574706c6163653a204b686f6e6720706861692076616044820152663634b230ba37b960c91b6064820152608401610973565b60095460011061127f5760405162461bcd60e51b815260206004820152602e60248201527f436172626f6e4d61726b6574706c6163653a205068616920636f206974206e6860448201526d30ba1018903b30b634b230ba37b960911b6064820152608401610973565b6001600160a01b0381165f908152600a60205260408120805460ff191690555b60095481101561139357816001600160a01b0316600982815481106112c6576112c66130fe565b5f918252602090912001546001600160a01b03160361138b57600980546112ef90600190612e40565b815481106112ff576112ff6130fe565b5f91825260209091200154600980546001600160a01b03909216918390811061132a5761132a6130fe565b905f5260205f20015f6101000a8154816001600160a01b0302191690836001600160a01b03160217905550600980548061136657611366613112565b5f8281526020902081015f1990810180546001600160a01b0319169055019055611393565b60010161129f565b506040516001600160a01b038216907fe1434e25d6611e0db941968fdc97811c982ac1602e951637d206f5fdda9dd8f1905f90a250565b335f908152600a602052604090205460ff166113f85760405162461bcd60e51b815260040161097390612f5e565b5f828152600c602052604090206007015460ff166114285760405162461bcd60e51b815260040161097390613126565b5f828152600c602052604090206005015460ff16156114985760405162461bcd60e51b815260206004820152602660248201527f436172626f6e4d61726b6574706c6163653a20447520616e2064612064756f6360448201526508191d5e595d60d21b6064820152608401610973565b5f82815260116020908152604080832033845290915290205460ff16156115165760405162461bcd60e51b815260206004820152602c60248201527f436172626f6e4d61726b6574706c6163653a20446120626f207068696575206360448201526b686f20647520616e206e617960a01b6064820152608401610973565b5f828152600c60205260409020600101546001600160a01b031633036115a45760405162461bcd60e51b815260206004820152603f60248201527f436172626f6e4d61726b6574706c6163653a204b686f6e67207468652062617560448201527f2070686965752063686f20647520616e20637561206368696e68206d696e68006064820152608401610973565b5f8281526011602090815260408083203384529091529020805460ff1916600117905580156115ec575f8281526010602052604081208054916115e683612faf565b91905055505b6040518115158152339083907f8a2f9e7b9bac31adefd6ebc006660777c280982e4e63af8a781ab1a3ecbe04189060200161118b565b61162a612836565b611632612851565b5f828152600d60205260409020600581015460ff166116635760405162461bcd60e51b815260040161097390612edc565b5f8381526012602052604090206004015460ff16156116df5760405162461bcd60e51b815260206004820152603260248201527f436172626f6e4d61726b6574706c6163653a204e69656d207965742064616e67604482015271020786179207261207472616e6820636861760741b6064820152608401610973565b5f82116116fe5760405162461bcd60e51b81526004016109739061316c565b806003015482111561175e5760405162461bcd60e51b8152602060048201526024808201527f436172626f6e4d61726b6574706c6163653a20536f206c756f6e67206b686f6e6044820152636720647560e01b6064820152608401610973565b5f81600401548361176f91906131ae565b90508034146117d85760405162461bcd60e51b815260206004820152602f60248201527f436172626f6e4d61726b6574706c6163653a20536f206c756f6e67204554482060448201526e6b686f6e67206368696e682078616360881b6064820152608401610973565b82826003015f8282546117eb9190612e40565b909155505060038201545f036118085760058201805460ff191690555b5f6127106003548361181a91906131ae565b6118249190612fc7565b90505f6118318284612e40565b60028501546001600160a01b03165f908152600e602052604081208054929350839290919061186190849061290d565b925050819055508160045f828254611879919061290d565b90915550505f868152600f60209081526040808320338452909152812080548792906118a690849061290d565b90915550506005546001850154604051637921219560e11b81526001600160a01b039092169163f242432a916118e491309133918b90600401612f27565b5f604051808303815f87803b1580156118fb575f5ffd5b505af115801561190d573d5f5f3e3d5ffd5b505060408051888152602081018790529081018590523392508891507f4cf783b60721852d43f6b9ed3db9cf76f61a28f538ede29d28f9dadb2a4b29549060600160405180910390a350505050610a5a60015f5160206132675f395f51905f5255565b61197861280a565b6001600160a01b0381166119de5760405162461bcd60e51b815260206004820152602760248201527f436172626f6e4d61726b6574706c6163653a2044696120636869206b686f6e6760448201526620686f70206c6560c81b6064820152608401610973565b6001600160a01b0381165f908152600a602052604090205460ff1615611a515760405162461bcd60e51b815260206004820152602260248201527f436172626f6e4d61726b6574706c6163653a204461206c612076616c6964617460448201526137b960f11b6064820152608401610973565b6009805460018082019092557f6e1540171b6c0c960b71a7020d9f60077f6af931a8bbf590da0223dacf75c7af0180546001600160a01b0319166001600160a01b0384169081179091555f818152600a6020526040808220805460ff1916909417909355915190917fe366c1c0452ed8eec96861e9e54141ebff23c9ec89fe27b996b45f5ec388498791a250565b60126020525f908152604090208054600182015460028301805492936001600160a01b0390921692611b1090612ea4565b80601f0160208091040260200160405190810160405280929190818152602001828054611b3c90612ea4565b8015611b875780601f10611b5e57610100808354040283529160200191611b87565b820191905f5260205f20905b815481529060010190602001808311611b6a57829003601f168201915b50505050600383015460049093015491929160ff16905085565b611ba961280a565b5f838152600c60205260409020600781015460ff168015611bcf5750600581015460ff16155b8015611be557506005810154610100900460ff16155b611c4a5760405162461bcd60e51b815260206004820152603060248201527f436172626f6e4d61726b6574706c6163653a205472616e67207468616920647560448201526f20616e206b686f6e6720686f70206c6560801b6064820152608401610973565b5f83118015611c5d575080600301548311155b611cbb5760405162461bcd60e51b815260206004820152602960248201527f436172626f6e4d61726b6574706c6163653a204c756f6e6720434f32206b686f6044820152686e6720686f70206c6560b81b6064820152608401610973565b600954611cca90600290612fc7565b611cd590600161290d565b5f858152601060205260409020541015611d415760405162461bcd60e51b815260206004820152602760248201527f436172626f6e4d61726b6574706c6163653a204368756120647520736f2070686044820152666965752062617560c81b6064820152608401610973565b5f611d4d600a85612fc7565b6005808401805460ff191660019081179091556004808601889055915490850154604051639bc8bd6760e01b81529394506001600160a01b0391821693639bc8bd6793611da59392909216918a9187918a91016131c5565b5f604051808303815f87803b158015611dbc575f5ffd5b505af1158015611dce573d5f5f3e3d5ffd5b505060408051878152602081018590523393508892507f417649f088b1cffd792b37a2e707b7a152947dafa76acc010a51007ffb800758910160405180910390a35050505050565b611e1e61280a565b611e275f61287b565b565b611e31612836565b335f908152600e602052604090205480611e9e5760405162461bcd60e51b815260206004820152602860248201527f436172626f6e4d61726b6574706c6163653a204b686f6e6720636f20736f20646044820152671d481919481c9d5d60c21b6064820152608401610973565b335f818152600e60205260408082208290555190919083908381818185875af1925050503d805f8114611eec576040519150601f19603f3d011682016040523d82523d5f602084013e611ef1565b606091505b5050905080611f125760405162461bcd60e51b815260040161097390612e53565b5050611e2760015f5160206132675f395f51905f5255565b611f3261280a565b808210611f785760405162461bcd60e51b81526020600482015260146024820152730dad2dc40e0d0c2d240dcd0de40d0dedc40dac2f60631b6044820152606401610973565b600191909155600255565b335f908152600b602052604090205460ff16156120015760405162461bcd60e51b815260206004820152603660248201527f436172626f6e4d61726b6574706c6163653a204469612063686920646120626960448201527510323ab0903b30b7903230b7341039b0b1b4103232b760511b6064820152608401610973565b5f82511161205b5760405162461bcd60e51b815260206004820152602160248201527f436172626f6e4d61726b6574706c6163653a205552492064616e672074726f6e6044820152606760f81b6064820152608401610973565b5f81116120b65760405162461bcd60e51b815260206004820152602360248201527f436172626f6e4d61726b6574706c6163653a204c756f6e6720434f322062616e60448201526206720360ec1b6064820152608401610973565b60078054905f6120c583612faf565b90915550506040805161012081018252600754808252336020808401918252838501878152606085018790525f6080860181905260a0860181905260c086018190524260e087015260016101008701819052948152600c90925294902083518155905191810180546001600160a01b0319166001600160a01b03909316929092179091559151909190600282019061215d9082613031565b50606082015160038201556080820151600482015560a082015160058201805460c085015161ffff1990911692151561ff00191692909217610100921515830217905560e08301516006830155909101516007918201805460ff1916911515919091179055546040513391907fd73627fbc87a3f845e8eff3815bcfed9c103accf48d6f76be3bcfb69f2e90c8e9061118b90869086906131f1565b61220061280a565b6103e88111156122695760405162461bcd60e51b815260206004820152602e60248201527f436172626f6e4d61726b6574706c6163653a20506869206b686f6e672064756f60448201526d632076756f74207175612031302560901b6064820152608401610973565b600355565b612276612851565b5f838152600c60205260409020600581015460ff1680156122a157506005810154610100900460ff16155b6122fb5760405162461bcd60e51b815260206004820152602560248201527f436172626f6e4d61726b6574706c6163653a20447520616e206b686f6e6720686044820152646f70206c6560d81b6064820152608401610973565b60018101546001600160a01b031633146123715760405162461bcd60e51b815260206004820152603160248201527f436172626f6e4d61726b6574706c6163653a204e67756f6920676f69206b686f604482015270373390383430b49031b43a90323a9030b760791b6064820152608401610973565b5f83116123905760405162461bcd60e51b81526004016109739061316c565b60015482101580156123a457506002548211155b6123fc5760405162461bcd60e51b815260206004820152602360248201527f436172626f6e4d61726b6574706c6163653a20476961206b686f6e6720686f70604482015262206c6560e81b6064820152608401610973565b600554604051637921219560e11b81526001600160a01b039091169063f242432a90612432903390309089908990600401612f27565b5f604051808303815f87803b158015612449575f5ffd5b505af115801561245b573d5f5f3e3d5ffd5b505060088054925090505f61246f83612faf565b90915550506040805160e08101825260088054808352602080840189815233858701818152606087018b8152608088018b8152600160a08a018181524260c08c019081525f998a52600d8952988c90209a518b559551908a015591516002890180546001600160a01b0319166001600160a01b03909216919091179055516003880155516004870155905160058601805460ff1916911515919091179055915160069094019390935590548351878152928301869052909287927f492d2294f1b8a982001da6ecb3de3a374ad9c29c9c8d5ad43da90cc50b585136910160405180910390a450505050565b612562612836565b61256a612851565b5f82116125895760405162461bcd60e51b81526004016109739061316c565b5f838152600c602052604090206007015460ff166125b95760405162461bcd60e51b815260040161097390613126565b5f8151116126195760405162461bcd60e51b815260206004820152602760248201527f436172626f6e4d61726b6574706c6163653a20555249206368756e67206e68616044820152666e2074726f6e6760c81b6064820152608401610973565b600554604051637921219560e11b81526001600160a01b039091169063f242432a9061264f903390309088908890600401612f27565b5f604051808303815f87803b158015612666575f5ffd5b505af1158015612678573d5f5f3e3d5ffd5b505060055460405163266d38b560e01b815230600482015260248101879052604481018690526001600160a01b03909116925063266d38b591506064015f604051808303815f87803b1580156126cc575f5ffd5b505af11580156126de573d5f5f3e3d5ffd5b505050505f600a836126f091906131ae565b600654604051637bd9ec2b60e11b81529192505f916001600160a01b039091169063f7b3d8569061272d9033908990899088908a90600401613212565b6020604051808303815f875af1158015612749573d5f5f3e3d5ffd5b505050506040513d601f19601f8201168201806040525081019061276d919061324f565b6040805186815260208101859052908101829052909150859033907fc2a14c558d78e10070d4d47af58c35865b39a4b372d403bdf21f253b73bfba209060600160405180910390a35050610f3160015f5160206132675f395f51905f5255565b6127d561280a565b6001600160a01b0381166127fe57604051631e4fbdf760e01b81525f6004820152602401610973565b6128078161287b565b50565b5f546001600160a01b03163314611e275760405163118cdaa760e01b8152336004820152602401610973565b61283e6128ca565b60025f5160206132675f395f51905f5255565b5f54600160a01b900460ff1615611e275760405163d93c066560e01b815260040160405180910390fd5b5f80546001600160a01b038381166001600160a01b0319831681178455604051919092169283917f8be0079c531659141344cd1fd0a4f28419497f9722a3daafe3b4186f6b6457e09190a35050565b5f5160206132675f395f51905f5254600203611e2757604051633ee5aeb560e01b815260040160405180910390fd5b634e487b7160e01b5f52601160045260245ffd5b80820180821115610901576109016128f9565b5f60208284031215612930575f5ffd5b81356001600160e01b031981168114612947575f5ffd5b9392505050565b6001600160a01b0381168114612807575f5ffd5b5f5f60408385031215612973575f5ffd5b823561297e8161294e565b946020939093013593505050565b5f6020828403121561299c575f5ffd5b5035919050565b5f81518084528060208401602086015e5f602082860101526020601f19601f83011685010191505092915050565b8981526001600160a01b0389166020820152610120604082018190525f906129fb9083018a6129a3565b606083019890985250608081019590955292151560a085015290151560c084015260e08301521515610100909101529392505050565b5f5f60408385031215612a42575f5ffd5b8235915060208301358015158114612a58575f5ffd5b809150509250929050565b634e487b7160e01b5f52604160045260245ffd5b604051601f8201601f1916810167ffffffffffffffff81118282101715612aa057612aa0612a63565b604052919050565b5f82601f830112612ab7575f5ffd5b8135602083015f5f67ffffffffffffffff841115612ad757612ad7612a63565b50601f8301601f1916602001612aec81612a77565b915050828152858383011115612b00575f5ffd5b828260208301375f92810160200192909252509392505050565b5f5f60408385031215612b2b575f5ffd5b82359150602083013567ffffffffffffffff811115612b48575f5ffd5b612b5485828601612aa8565b9150509250929050565b5f60208284031215612b6e575f5ffd5b81356129478161294e565b5f5f60408385031215612b8a575f5ffd5b50508035926020909101359150565b8581526001600160a01b038516602082015260a0604082018190525f90612bc2908301866129a3565b6060830194909452509015156080909101529392505050565b5f5f5f60608486031215612bed575f5ffd5b8335925060208401359150604084013567ffffffffffffffff811115612c11575f5ffd5b612c1d86828701612aa8565b9150509250925092565b5f5f60408385031215612c38575f5ffd5b823591506020830135612a588161294e565b5f5f60408385031215612c5b575f5ffd5b823567ffffffffffffffff811115612c71575f5ffd5b612c7d85828601612aa8565b95602094909401359450505050565b5f5f5f60608486031215612c9e575f5ffd5b505081359360208301359350604090920135919050565b5f82601f830112612cc4575f5ffd5b813567ffffffffffffffff811115612cde57612cde612a63565b8060051b612cee60208201612a77565b91825260208185018101929081019086841115612d09575f5ffd5b6020860192505b83831015612d2b578235825260209283019290910190612d10565b9695505050505050565b5f5f5f5f5f60a08688031215612d49575f5ffd5b8535612d548161294e565b94506020860135612d648161294e565b9350604086013567ffffffffffffffff811115612d7f575f5ffd5b612d8b88828901612cb5565b935050606086013567ffffffffffffffff811115612da7575f5ffd5b612db388828901612cb5565b925050608086013567ffffffffffffffff811115612dcf575f5ffd5b612ddb88828901612aa8565b9150509295509295909350565b5f5f5f5f5f60a08688031215612dfc575f5ffd5b8535612e078161294e565b94506020860135612e178161294e565b93506040860135925060608601359150608086013567ffffffffffffffff811115612dcf575f5ffd5b81810381811115610901576109016128f9565b60208082526031908201527f436172626f6e4d61726b6574706c6163653a204769616f20646963682063687560408201527079656e207469656e20746861742062616960781b606082015260800190565b600181811c90821680612eb857607f821691505b602082108103612ed657634e487b7160e01b5f52602260045260245ffd5b50919050565b6020808252602b908201527f436172626f6e4d61726b6574706c6163653a204e69656d20796574206b686f6e60408201526a6720686f617420646f6e6760a81b606082015260800190565b6001600160a01b0394851681529290931660208301526040820152606081019190915260a0608082018190525f9082015260c00190565b60208082526031908201527f436172626f6e4d61726b6574706c6163653a204e67756f6920676f69206b686f604082015270373390383430b4903b30b634b230ba37b960791b606082015260800190565b5f60018201612fc057612fc06128f9565b5060010190565b5f82612fe157634e487b7160e01b5f52601260045260245ffd5b500490565b601f821115610f3157805f5260205f20601f840160051c8101602085101561300b5750805b601f840160051c820191505b8181101561302a575f8155600101613017565b5050505050565b815167ffffffffffffffff81111561304b5761304b612a63565b61305f816130598454612ea4565b84612fe6565b6020601f821160018114613091575f831561307a5750848201515b5f19600385901b1c1916600184901b17845561302a565b5f84815260208120601f198516915b828110156130c057878501518255602094850194600190920191016130a0565b50848210156130dd57868401515f19600387901b60f8161c191681555b50505050600190811b01905550565b602081525f61294760208301846129a3565b634e487b7160e01b5f52603260045260245ffd5b634e487b7160e01b5f52603160045260245ffd5b60208082526026908201527f436172626f6e4d61726b6574706c6163653a20447520616e206b686f6e6720746040820152656f6e2074616960d01b606082015260800190565b60208082526022908201527f436172626f6e4d61726b6574706c6163653a20536f206c756f6e672062616e67604082015261020360f41b606082015260800190565b8082028115828204841417610901576109016128f9565b60018060a01b0385168152836020820152826040820152608060608201525f612d2b60808301846129a3565b604081525f61320360408301856129a3565b90508260208301529392505050565b60018060a01b038616815284602082015283604082015282606082015260a060808201525f61324460a08301846129a3565b979650505050505050565b5f6020828403121561325f575f5ffd5b505191905056fe9b779b17422d0df92223018b32b4d1fa46e071723d6817e2486d003becc55f00a2646970667358221220ddb638421fc36bbc1dcdfe6a2cc259ac1d5c13d51f2b2001951685e318e6225a64736f6c634300081c0033",
  "linkReferences": {},
  "deployedLinkReferences": {},
  "immutableReferences": {},
  "inputSourceName": "project/contracts/CarbonMarketplace.sol",
  "buildInfoId": "solc-0_8_28-6cefbad567fa15f383867804f7e68d042f8a1453"
}